:100000000C942E000C944B000C944B000C944B0061
:100010000C944B000C944B000C944B000C944B0034
:100020000C944B000C944B000C944B000C944B0024
:100030000C944B000C944B000C944B000C944B0014
:100040000C944B000C944B000C944B000C944B0004
:100050000C944B000C944B000C944B0011241FBECD
:10006000CFEFD8E0DEBFCDBF12E0A0E0B1E0EEED13
:10007000FBE002C005900D92A030B107D9F713E064
:10008000A0E0B2E001C01D92A038B107E1F70E94E4
:10009000DF000C94ED050C940000719827E030E02F
:1000A000482F552747FD509575E0CA01022E02C022
:1000B000959587950A94E2F780FF03C0749A759A24
:1000C00002C074987598709A872F8A95F1F7709886
:1000D000215030408FEF2F3F380739F727E030E0CD
:1000E000772767FD709545E0CB01022E02C09595FC
:1000F00087950A94E2F780FF03C0749A759A02C04C
:1001000074987598709A842F8A95F1F77098215099
:1001100030408FEF2F3F380739F7719A0895719863
:1001200027E030E0E82FFF27E7FDF09555E0CF010D
:10013000022E02C0959587950A94E2F780FF03C0CE
:10014000749A759A02C074987598709A852F8A95DA
:10015000F1F77098215030408FEF2F3F380739F773
:1001600027E030E0E42FFF27E7FDF095772767FDD4
:10017000709545E0522FCF01022E02C095958795CC
:100180000A94E2F780FF02C0759A01C07598CB010E
:1001900002C0959587955A95E2F780FF02C0749A40
:1001A00001C07498709A842F8A95F1F77098215045
:1001B00030408FEF2F3F3807E9F6719A0895A1E498
:1001C000B0E0E5EEF0E00C94D10582E08B878C87FF
:1001D0008D878E878F87888B83E0898B8A8B89E0D8
:1001E0008B8B81E08C8B8D8B8E8B8FEF8DB980E725
:1001F00084B91EB815B88CE087B91BB81AB88BE063
:1002000067E00E944D008AE06FE00E944D0011E01F
:10021000812F60E00E944D001F5F1930C9F78CE00C
:1002200061E00E944D008FE060E00E944D0082E09E
:1002300060E040E80E948F0083E060E040E80E94B8
:100240008F0020E040E05DE7CA010197F1F72F5FE2
:100250002830D1F78AE067E00E944D0081E060E03D
:1002600040E80E948F0082E060E040E40E948F003E
:1002700083E060E040E40E948F0084E060E040E8BA
:100280000E948F0020E040E05DE7CA010197F1F78E
:100290002F5F2830D1F78AE063E00E944D0081E0B3
:1002A00060E040E40E948F0082E060E040E20E9453
:1002B0008F0083E060E040E20E948F0084E060E015
:1002C00040E40E948F0085E060E040E80E948F00DB
:1002D00020E040E05DE7CA010197F1F72F5F283089
:1002E000D1F78AE060E00E944D0081E060E040E2EA
:1002F0000E948F0082E060E040E10E948F0083E076
:1003000060E040E10E948F0084E060E040E20E94F3
:100310008F0085E060E040EC0E948F0020E040E02C
:100320005DE7CA010197F1F72F5F2830D1F711E09F
:10033000812F60E00E944D001F5F1930C9F78AE0ED
:100340006FE00E944D00FE013196CE010B96119296
:10035000E817F907E1F79E01215E3F4F22963FAF74
:100360002EAF22979E01215E3F4F80E090E0AE01CC
:10037000495E5F4F0BC01192E217F307E1F7019658
:100380009F01285F3F4F8430910549F0FC01B3E0A5
:10039000EE0FFF1FBA95E1F7E40FF51FECCF0E94B7
:1003A0003505BB2431E03BAF1AAE19AE30E0332344
:1003B00019F1349B02C031E015C08CE061E00E946D
:1003C0004D0010E0E12CADE7FA2E612F66956695A1
:1003D0008AE00E944D00C7010197F1F71F5F1034BA
:1003E000A1F730E020E040E05DE7CA010197F1F7B6
:1003F0002F5F2034D1F7DBCF1BB81AB849AD493293
:1004000010F0BB2426C259AD5F5F59AF22C243989A
:1004100085E08A95F1F789B1E1E0F0E0EC0FFD1F8E
:10042000EB0DF11D8083BB2091F4898182958F7043
:100430008AAF8C3068F4EBE0F0E0EC0FFD1FE80FC2
:10044000F11D20812BAFBB24B39419AE01C0B3942E
:100450003BADB31609F0F9C14AAD4A3021F46981C8
:100460006F708AE011C05AAD5B30D9F48981837016
:1004700019F48CE061E010C0813049F48CE061E057
:100480000E944D008FE061E00E944D00DDC182308E
:1004900009F0DAC18CE060E00E944D008FE060E07E
:1004A000F3CF8AAD853019F0FAADF73079F589814F
:1004B0008F70482F40954770242F30E0883018F017
:1004C00088E090E002C080E090E0A1E0B0E0AC0FF6
:1004D000BD1FA20FB31FA80FB91FEA81F0E0E050C3
:1004E000FF4F808156968C93E7E1F0E0EC0FFD1F03
:1004F000E20FF31F8FE190E08C0F9D1F280F391F33
:10050000842F8F5F6081F901408175C1FAADF430AD
:1005100009F043C02981822F90E0809590958770E3
:10052000907041E050E002C0440F551F8A95E2F7F9
:1005300023FD8AC16A81F7E1EF2EF12CEC0EFD1E3E
:10054000F70127E030E0542F509581E090E0022E33
:1005500002C0880F991F0A94E2F7862390818823AE
:1005600011F0942B01C09523908321503040319697
:1005700022968EAD9FAD2297E817F90731F710E06C
:100580001F5F812FF701608140850E948F000894D2
:10059000E11CF11C1830A1F757C1FAADF63009F093
:1005A0004FC02981822F90E0809590958770907040
:1005B00041E050E002C0440F551F8A95E2F7CA019E
:1005C000342F23FD41C1AA817B81FE01779647E04C
:1005D00050E0682F609581E090E0042E02C0880F03
:1005E000991F0A94E2F7982F8A232081882311F01B
:1005F000232B01C02623208397238085992311F084
:10060000832B01C08623808741505040319622962B
:100610008EAD9FAD2297E817F907E9F68E01095EC6
:100620001F4F90E09F5F892FF801608140859FAF49
:100630000E948F000F5F1F4F9FAD983099F704C144
:10064000FAADF83009F054C089818370823008F027
:10065000FBC0DE01199660E070E0482F50E0E3E057
:10066000440F551FEA95E1F727E130E02C0F3D1FBD
:10067000420F531F81E090E0062E02C0880F991FA1
:100680000A94E2F7F82E8C91082F10E0FA0127E087
:1006900030E0EF2CE094C801022E02C095958795BA
:1006A0000A94E2F7908180FF02C09F2901C09E2139
:1006B00090832150304031968FEF2F3F380759F704
:1006C0006F5F7F4F119768307105A1F68E01095E4B
:1006D0001F4F90E09F5F892FF801608140859FAF99
:1006E0000E948F000F5F1F4F9FAD983099F7ACC0ED
:1006F000FAADF230B1F52A81822F90E088709070C7
:100700009595879595958795E22FEE1FEE27EE1F1D
:10071000E80FE23008F098C0822F8295877037E0AA
:10072000381B832FF0E0A32FB0E093E0EE0FFF1F04
:100730009A95E1F741E050E04C0F5D1FE40FF51F83
:10074000EA0FFB1F277057E0521B252F41E050E0B6
:1007500002C0440F551F2A95E2F79689942B968B79
:100760003BC03AAD333009F049C02A81822F90E076
:10077000887090709595879595958795E22FEE1FD7
:10078000EE27EE1FE80FE23008F05EC0822F829560
:10079000877047E0481B842FF0E0A42FB0E013E0FF
:1007A000EE0FFF1F1A95E1F741E050E04C0F5D1F7F
:1007B000E40FF51FEA0FFB1F277057E0521B252F90
:1007C00041E050E002C0440F551F2A95E2F79A011C
:1007D000209596892923268BE7E1F0E0EC0FFD1F99
:1007E000EA0FFB1F2FE130E02C0F3D1FA20FB31FBC
:1007F0008F5F60814C910E948F0026C03AAD3930E6
:1008000019F58981982F917080FD9FEF8E01095E07
:100810001F4FF80190839087908B908F319622968E
:100820004EAD5FAD2297E417F507A1F790E09F5F0B
:10083000892FF801608140859FAF0E948F000F5F74
:100840001F4F9FAD983099F7BB24439A85E08A9556
:10085000F1F7319BDCCD1BB8FFEFFAB900E413E0F0
:10086000E0E02E2EE2E03E2E70E6872E73E0972E1B
:100870006624772468E0462E512C6FAA862D829537
:10088000807F85B9F8018081F1018083F80180853E
:10089000F10180878AE18A95F1F7779A85E08A9558
:1008A000F1F7F42DF295F07FFDAF262D2295207FF4
:1008B0002CAFCC24DD2457E0A52E4EAEC8AE83B1BC
:1008C00090E043E0969587954A95E1F7F8012081FD
:1008D000EE24E394E82280FD0AC081E090E00C2C35
:1008E00002C0880F991F0A94E2F7282B0BC081E001
:1008F00090E00C2C02C0880F991F0A94E2F78095B3
:100900002823F80120838FA968AD0E944E05F401C9
:100910002081FC2C822F90E00C2C02C095958795AD
:100920000A94E2F780FF16C081E090E00C2C02C030
:10093000880F991F0A94E2F7809582238083429A58
:10094000E29430EFE322EBB84298429A8DAD8A29C7
:100950008BB9429883B190E0969587959695879547
:10096000F8012085EE24E394E82280FD0AC081E0AE
:1009700090E00F2C02C0880F991F0A94E2F7282BF1
:100980000BC081E090E00F2C02C0880F991F0A94E1
:10099000E2F780952823F80120878EAD68AD0E948C
:1009A0004E05F4012085822F90E00F2C02C0959512
:1009B00087950A94E2F780FF15C081E090E002C0BD
:1009C000880F991FFA94E2F7809582238087429AD4
:1009D000E29490EFE922EBB84298429A8CAD8A29D2
:1009E0008BB94298769A85E08A95F1F7769885E0FA
:1009F0008A95F1F70894C11CD11CAA94FFEFAF1699
:100A000009F05CCF77980894611C711C0F5F1F4F31
:100A10000894211C311C0894411C511C0894811C11
:100A2000911C28E06216710409F027CF349BE4CCB6
:100A30008FE0F82E00E01DE78AE06F2D0E944D0048
:100A4000C8010197F1F7C8010197F1F7C8010197B3
:100A5000F1F7C8010197F1F7FA943FEFF31661F748
:100A60008CE060E00E944D00A4CCCF93DF93E0E4E3
:100A7000F3E080E092E0C0E2D3E040E653E0119280
:100A8000DC011D92CD011992DA011D92AD01B3E096
:100A9000E036FB07A1F7DF91CF910895CF93DF9365
:100AA000A82FBB27FD01E05CFC4F50817727FD019B
:100AB000E050FE4F808185279927062E02C095952C
:100AC00087950A94E2F7ED01C05EDC4F80FF2FC0EE
:100AD0002881852F82279927062E02C09595879514
:100AE0000A94E2F780FF5AC0852F9927062E02C08C
:100AF000959587950A94E2F780FF0DC081E090E01C
:100B000002C0880F991F6A95E2F7A05ABC4F8C93D8
:100B1000282B288343C093E0AA0FBB1F9A95E1F7C7
:100B2000A05EBD4FA60FB71F80E18C9337C04881F0
:100B3000852F84279927062E02C0959587950A94BC
:100B4000E2F780FF2BC0FD0183E0EE0FFF1F8A95C7
:100B5000E1F7E05EFD4FE60FF71F80818823F1F09B
:100B6000815080838823D1F421E030E0062E02C03A
:100B7000220F331F0A94E2F7A05ABC4F2C93852F03
:100B8000992702C0959587956A95E2F780FF02C084
:100B9000422B03C0822F809548234883DF91CF9159
:100BA00008952F923F924F925F926F927F928F9211
:100BB0009F92AF92BF92CF92DF92EF92FF920F93EC
:100BC0001F93CF93DF93CDB7DEB7CA1BDB0B0FB6F6
:0E0BD000F894DEBF0FBECDBF0994F894FFCF9E
:100BDE00008040C020A060E0109050D030B070F087
:100BEE00088848C828A868E8189858D838B878F8F7
:100BFE00048444C424A464E4149454D434B474F427
:100C0E000C8C4CCC2CAC6CEC1C9C5CDC3CBC7CFC96
:100C1E00028242C222A262E2129252D232B272F226
:100C2E000A8A4ACA2AAA6AEA1A9A5ADA3ABA7AFA96
:100C3E00068646C626A666E6169656D636B676F6C6
:100C4E000E8E4ECE2EAE6EEE1E9E5EDE3EBE7EFE36
:100C5E00018141C121A161E1119151D131B171F1F6
:100C6E00098949C929A969E9199959D939B979F966
:100C7E00058545C525A565E5159555D535B575F596
:100C8E000D8D4DCD2DAD6DED1D9D5DDD3DBD7DFD06
:100C9E00038343C323A363E3139353D333B373F396
:100CAE000B8B4BCB2BAB6BEB1B9B5BDB3BBB7BFB06
:100CBE00078747C727A767E7179757D737B777F736
:100CCE000F8F4FCF2FAF6FEF1F9F5FDF3FBF7FFFA6
:00000001FF
