:100000000C942E000C944B000C944B000C944B0061
:100010000C944B000C944B000C944B000C944B0034
:100020000C944B000C944B000C944B000C944B0024
:100030000C944B000C944B000C944B000C944B0014
:100040000C944B000C944B000C944B000C944B0004
:100050000C944B000C944B000C944B0011241FBECD
:10006000CFEFD8E0DEBFCDBF12E0A0E0B1E0E8EC1A
:10007000FCE002C005900D92A030B107D9F713E063
:10008000A0E0B2E001C01D92A034B107E1F70E94E8
:10009000DF000C9462060C940000719827E030E0B9
:1000A000482F552747FD509575E0CA01022E02C022
:1000B000959587950A94E2F780FF03C0729A779A24
:1000C00002C072987798709A872F8A95F1F7709886
:1000D000215030408FEF2F3F380739F727E030E0CD
:1000E000772767FD709545E0CB01022E02C09595FC
:1000F00087950A94E2F780FF03C0729A779A02C04C
:1001000072987798709A842F8A95F1F77098215099
:1001100030408FEF2F3F380739F7719A0895719863
:1001200027E030E0E82FFF27E7FDF09555E0CF010D
:10013000022E02C0959587950A94E2F780FF03C0CE
:10014000729A779A02C072987798709A852F8A95DA
:10015000F1F77098215030408FEF2F3F380739F773
:1001600027E030E0772767FD7095E42FFF27E7FD54
:10017000F09545E0522FCB01022E02C09595879550
:100180000A94E2F780FF02C0729A01C07298CF0110
:1001900002C0959587955A95E2F780FF02C0779A3D
:1001A00001C07798709A842F8A95F1F77098215042
:1001B00030408FEF2F3F3807E9F6719A0895AEE58A
:1001C000B0E0E5EEF0E00C94460692E09F8B988F4D
:1001D000998F9A8F9B8F9C8F83E08D8F8E8F89E074
:1001E0008F8F81E088A389A38AA38BA39CA38FE927
:1001F0008DB980E784B91EB815B88CE087B91BB8F3
:100200001AB88BE067E00E944D008AE06FE00E9420
:100210004D0001E0802F60E00E944D000F5F09302B
:10022000C9F78CE061E00E944D008FE060E00E9421
:100230004D0082E060E840E00E948F0083E060E8CB
:1002400040E00E948F0080E892E020E931E0F9016F
:100250003197F1F70197D9F78AE067E00E944D00E6
:1002600081E060E840E00E948F0082E060E440E0CE
:100270000E948F0083E060E440E00E948F0084E0F1
:1002800060E840E00E948F0080E892E020E931E0E1
:10029000F9013197F1F70197D9F78AE063E00E94FD
:1002A0004D0081E060E440E00E948F0082E060E267
:1002B00040E00E948F0083E060E240E00E948F00F7
:1002C00084E060E440E00E948F0085E060E840E068
:1002D0000E948F0080E892E020E931E0F901319737
:1002E000F1F70197D9F78AE060E00E944D0081E0C4
:1002F00060E240E00E948F0082E060E140E00E9406
:100300008F0083E060E140E00E948F0084E060E2C3
:1003100040E00E948F0085E060EC40E00E948F008A
:1003200080E892E020E931E0F9013197F1F7019797
:10033000D9F701E0802F60E00E944D000F5F093087
:10034000C9F78AE06FE00E944D00FE013D96CE01A4
:1003500047961192E817F907E1F79E01235C3F4F9A
:100360006F963FAF2EAF6F979E01235C3F4F80E0AB
:1003700090E0AE014B5C5F4F0BC01192E217F307A8
:10038000E1F701969F01285F3F4F8430910549F0C6
:10039000FC0163E0EE0FFF1F6A95E1F7E40FF51F24
:1003A000ECCF0E94A10581E080937C0082E88093DD
:1003B0007A0080917A00806480937A00FE01B5967D
:1003C0008FE79E01235D3F4F80878193E217F307FC
:1003D000D9F78C838B838A83898388EF93E0A0E0AD
:1003E000B0E089879A87AB87BC878D839E83AF8374
:1003F000B887EE2431E069963FAF69976624689626
:100400001FAE6897222467961FAE679766961FAE49
:10041000669745E3442E512C4C0E5D1EAE014A5E9C
:100420005F4F6D965FAF4EAF6D97332319F1349BDD
:1004300002C031E015C08CE061E00E944D0010E088
:10044000C12C2DE7D22E612F669566958AE00E9419
:100450004D00C6010197F1F71F5F1034A1F730E09E
:1004600020E040E05DE7CA010197F1F72F5F2034FB
:10047000D1F7DBCF1BB81AB868965FAD68975932D1
:1004800010F0EE241FC268966FAD68976F5F689694
:100490006FAF689717C243988F2D8A95F1F789B18E
:1004A000EDE0F0E0EC0FFD1FEE0DF11D8083EE207E
:1004B000B9F46D8462949FE069227CE0761588F03F
:1004C000E7E1F0E0EC0FFD1FE60DF11D808169967C
:1004D0008FAF6997EE24E39468961FAE689701C0CA
:1004E000E39469969FAD6997E91609F0E6C1AAE021
:1004F0006A1621F46D856F708AE011C0BBE06B163F
:10050000D9F48D85837019F48CE061E010C08130DE
:1005100049F48CE061E00E944D008FE061E00E94B0
:100520004D00CAC1823009F0C7C18CE060E00E9472
:100530004D008FE060E0F3CFE5E06E1609F049C0B2
:100540002D8530E0C9018770907041E050E002C015
:10055000440F551F8A95E2F76E85F901E870F07037
:10056000E40DF51D20E030E0542F509581E090E03F
:10057000022E02C0880F991F0A94E2F78623908109
:10058000882311F0942B01C0952390832F5F3F4F58
:1005900031962830310551F7820190E09F5FF801D4
:1005A000A081B0E0A050BF4F8085E82FF0E0E05080
:1005B000FF4F892F6C9140816B969FAF6B970E9484
:1005C0008F000F5F1F4F6B969FAD6B97983031F781
:1005D00073C1F7E06F1609F049C02D8530E0C901FD
:1005E0008770907041E050E002C0440F551F8A951B
:1005F000E2F76E85F901E870F070E40DF51D20E07A
:1006000030E0542F509581E090E0022E02C0880F18
:10061000991F0A94E2F786239081882311F0942B86
:1006200001C0952390832F5F3F4F319628303105CD
:1006300051F7820190E09F5FF801A081B0E0A050E7
:10064000BF4F8085E82FF0E0E050FF4F892F6C917D
:1006500040816B969FAF6B970E948F000F5F1F4F7B
:100660006B969FAD6B97983031F726C1F4E06F160B
:1006700001F59D85892F8F70883008F01DC1892F65
:100680008770A82FB0E06E85F201EA0FFB1F608330
:10069000262F30E020503F4F4DE350E04C0F5D1FC0
:1006A000A40FB51FEC91F0E0E050FF4F8F5FD90130
:1006B00022C0B6E06B1621F59D85892F8F7088309A
:1006C00008F0FAC0892F8770A82FB0E06E85F2017C
:1006D000EA0FFB1F6083EF852DE330E02C0F3D1FF9
:1006E000A20FB31FEC93A62FB0E0A050BF4FF0E0D5
:1006F000E050FF4F8F5F6C9140810E948F00DCC003
:1007000038E06316B1F58D858370823008F0D4C06F
:10071000DE011E96E82FF0E083E0EE0FFF1F8A95C2
:10072000E1F7E40DF51D8D9181936D964EAD5FADB2
:100730006D97A417B507B9F7820190E09F5FF801A4
:10074000A081B0E0A050BF4F8085E82FF0E0E050DE
:10075000FF4F892F6C9140816B969FAF6B970E94E2
:100760008F000F5F1F4F6B969FAD6B97983031F7DF
:10077000A3C0F2E06F1669F54E85842F8770242F91
:1007800030E0287030703595279535952795E42F02
:10079000EE1FEE27EE1FE20FF0E0282F30E013E00F
:1007A000EE0FFF1F1A95E1F761E070E06C0F7D1FFF
:1007B000E60FF71FE20FF31F42954770A1E0B0E08C
:1007C00002C0AA0FBB1F4A95E2F794A99A2B94ABDB
:1007D00032C0F3E06F1609F03FC04E85842F87705A
:1007E000242F30E028703070359527953595279562
:1007F000E42FEE1FEE27EE1FE20FF0E0282F30E08F
:10080000A3E0EE0FFF1FAA95E1F761E070E06C0F27
:100810007D1FE60FF71FE20FF31F42954770A1E01F
:10082000B0E002C0AA0FBB1F4A95E2F7AD014095A8
:1008300094A9492344ABF201E20FF31FA081B0E079
:10084000A050BF4FEDE3F0E0EC0FFD1F2E0F3F1F58
:10085000F9019081E92F4BCFF9E06F1629F58D85CD
:10086000982F917080FD9FEF8201F2019083908715
:1008700031966F962EAD3FAD6F97E217F307B1F744
:1008800090E09F5F892FD8016C9118964C916B96E0
:100890009FAF6B970E948F000F5F1F4F6B969FADAE
:1008A0006B97983071F708C0BCE06B1629F4ED85A2
:1008B000E1706696EFAF6697EE24439A8F2D8A9586
:1008C000F1F702C0F5E0FF2E319BE5CD1BB88FEFAD
:1008D0008AB9E0E2CE2EE3E0DE2E70E0872E72E0F1
:1008E000972E60E3A62E63E0B62E772455E0352ED2
:1008F000872D8295807F85B9832D8A95F1F7D60162
:100900008C91F401808318968C9180878AE28A9575
:10091000F1F7749A832D8A95F1F700E010E0F7E083
:10092000F7196A96FFAF6A97602F8CB190E045E0A7
:10093000969587954A95E1F7D6012C91FF24F3947B
:10094000F82280FD0BC081E090E0002E02C0880FED
:10095000991F0A94E2F7282B2C930CC081E090E0B9
:10096000002E02C0880F991F0A94E2F78095282371
:10097000F6012083872D0E94B805D5013C91832F75
:1009800090E0002E02C0959587950A94E2F780FFCB
:1009900021C081E090E0002E02C0880F991F0A94C8
:1009A000E2F7809583238C93429AF29430EFF322FE
:1009B000FBB84298429A87E090E0801B910B24E0BC
:1009C000880F991F2A95E1F76A96BFAD6A978B2B1E
:1009D0008BB94298739A832D8A95F1F77398832D7A
:1009E0008A95F1F70F5F1F4F0830110509F09CCF72
:1009F000749873940894C11CD11C0894811C911C98
:100A00000894A11CB11CE8E07E1609F071CF66962F
:100A1000FFAD6697FF2309F475C0E22DF0E0EE0FFD
:100A2000FF1F61E070E06C0F7D1F6E0F7F1FDB0109
:100A30008C9111968C93EE0FFF1F01E010E00C0FCC
:100A40001D1F0E0F1F1FD80114962D913D914D9122
:100A50005C9117976796BFAD6797CB2EDD24EE0F9D
:100A6000FF1F81E090E08C0F9D1FE80FF91FEC0D38
:100A7000FD1DF4A08091780090917900969587955E
:100A80009695879584A3A0E0B0E0280F391F4A1FF0
:100A90005B1F2F19310941095109D80114962D9373
:100AA0003D934D935C93179793E0569547953795F3
:100AB00027959A95D1F7FB0120838181821751F008
:100AC000429AF0ED2F0E2BB860E3260E4298429A20
:100AD0002BB9429871E0271661F420927C000894AB
:100AE000C11CD11C8C2D877067968FAF679722240D
:100AF00004C010927C002224239480917A008064A8
:100B000080937A00349BB6CC8FE0F82E00E01DE78E
:100B10008AE06F2D0E944D00C8010197F1F7C801CE
:100B20000197F1F7C8010197F1F7C8010197F1F7B3
:100B3000FA949FEFF91661F78CE060E00E944D0097
:100B400076CC80E090E0FC01E05EFC4F1082FC017E
:100B5000E050FE4F1082FC01E05FFC4F1082FC0170
:100B6000E05DFC4F108201968830910561F7089591
:100B70001F93CF93DF93A82FB0E0FD01E05EFC4F01
:100B8000108170E0FD01E050FE4F8081812790E0F0
:100B9000062E02C0959587950A94E2F7AC01417044
:100BA000507080FF32C0FD01E05FFC4F2081822F3A
:100BB000812790E0062E02C0959587950A94E2F76A
:100BC00080FF23C0812F90E0062E02C09595879567
:100BD0000A94E2F780FF0DC081E090E002C0880F28
:100BE000991F6A95E2F7A05DBC4F8C93282B208358
:100BF00049C094E0AA0FBB1F9A95E1F7A60FB71F53
:100C0000A05FBD4F82E38C933DC0452BD9F5ED012C
:100C1000C05FDC4F4881842F812790E0062E02C000
:100C2000959587950A94E2F780FF2CC0FD0184E03A
:100C3000EE0FFF1F8A95E1F7E60FF71FE05FFD4F0C
:100C400080818823F9F0815080838823D9F421E0C2
:100C500030E0062E02C0220F331F0A94E2F7A05D97
:100C6000BC4F2C93812F90E002C0959587956A9593
:100C7000E2F780FF03C0422B488304C0822F809597
:100C800084238883DF91CF911F9108952F923F9203
:100C90004F925F926F927F928F929F92AF92BF928C
:100CA000CF92DF92EF92FF920F931F93CF93DF9338
:100CB000CDB7DEB7CA1BDB0B0FB6F894DEBF0FBE95
:080CC000CDBF0994F894FFCFA9
:100CC800008040C020A060E0109050D030B070F09C
:100CD800088848C828A868E8189858D838B878F80C
:100CE800048444C424A464E4149454D434B474F43C
:100CF8000C8C4CCC2CAC6CEC1C9C5CDC3CBC7CFCAC
:100D0800028242C222A262E2129252D232B272F23B
:100D18000A8A4ACA2AAA6AEA1A9A5ADA3ABA7AFAAB
:100D2800068646C626A666E6169656D636B676F6DB
:100D38000E8E4ECE2EAE6EEE1E9E5EDE3EBE7EFE4B
:100D4800018141C121A161E1119151D131B171F10B
:100D5800098949C929A969E9199959D939B979F97B
:100D6800058545C525A565E5159555D535B575F5AB
:100D78000D8D4DCD2DAD6DED1D9D5DDD3DBD7DFD1B
:100D8800038343C323A363E3139353D333B373F3AB
:100D98000B8B4BCB2BAB6BEB1B9B5BDB3BBB7BFB1B
:100DA800078747C727A767E7179757D737B777F74B
:100DB8000F8F4FCF2FAF6FEF1F9F5FDF3FBF7FFFBB
:00000001FF
