:100000000C9434000C9451000C9451000C94510049
:100010000C9451000C9451000C9451000C942D013F
:100020000C9403010C9451000C9451000C949A0010
:100030000C9451000C9451000C94AF000C94F800F7
:100040000C9451000C9451000C9451000C945100EC
:100050000C9451000C9451000C9451000C945100DC
:100060000C9421060C94510011241FBECFEFD8E050
:10007000DEBFCDBF11E0A0E0B1E0E0EBF0E102C0F7
:1000800005900D92A035B107D9F714E0A0E5B1E0D5
:1000900001C01D92A235B107E1F70E9457010C94EF
:1000A00056080C9400001092ED0311C050915001BD
:1000B000F901E50FF11DEF77F070280F391FD90115
:1000C0002C91EE52FE4F20834F5F4093ED03409101
:1000D000ED03242F30E02617370744F380915001B9
:1000E000860F80935001809150018F77809350014B
:1000F00008958FEF8093EA029091EC038091E703DB
:10010000981791F0E091EC03F0E0EE5AFE4F8081F9
:100110008093EA028091EC038F5F8093EC038091DF
:10012000EC038F778093EC038AEE92E061E00E940B
:10013000E40508951F920F920FB60F9211248F932A
:100140008091EB038F5F8093EB03109285001092F8
:1001500084008F910F900FBE0F901F9018951F92E3
:100160000F920FB60F9211248F93EF93FF9380910C
:10017000EF038830E8F01092EF032B9A2C9A2C981A
:10018000E091F003F0E0E05EFE4F808188BDE091F9
:10019000F003F0E0E05DFE4F80818093B300E091DA
:1001A000F003F0E0E05CFE4F80818093B40003C078
:1001B0002B982C9A2C981BB82D9A2D988091EF0390
:1001C000E7E0F0E0E81BF109EE52FD4F80818BB9CA
:1001D0008091EF038F5F8093EF0316BC1092B20003
:1001E000FF91EF918F910F900FBE0F901F90189578
:1001F0001F920F920FB60F9211241BB80F900FBED3
:100200000F901F9018951F920F920FB60F92112406
:100210008F939F93AF93BF93EF93FF939091EF03CF
:100220008091EF03E8E0F0E0DF01A81BB109AE51D7
:10023000BD4F8C918095E91BF109EE52FD4F9081E5
:1002400089238BB9FF91EF91BF91AF919F918F91CE
:100250000F900FBE0F901F9018951F920F920FB620
:100260000F9211248F939F93AF93BF93EF93FF93BC
:100270009091EF038091EF03E8E0F0E0DF01A81B2D
:10028000B109A652BD4F8C918095E91BF109EE5240
:10029000FD4F908189238BB9FF91EF91BF91AF9171
:1002A0009F918F910F900FBE0F901F901895A3E014
:1002B000B0E0EDE5F1E00C943E081092EF031092EF
:1002C000EB031092E7038091E7038093EC03109215
:1002D000500180915001809351018FE08093F00391
:1002E00081E08093E8038EEF84B98FEF87B98AB9F4
:1002F00014BC84E085BD86E080936E0090E597BDD8
:10030000E091F003F0E0E05EFE4F908198BD109226
:10031000B0008093B10080937000E091F003F0E0B2
:10032000E05DFE4F80818093B300E091F003F0E048
:10033000E05CFE4F80818093B4001092800085E0E5
:100340008093810082E080936F008AE090E0909338
:100350008900809388000E949C0778940E9453052E
:1003600086E60E94660583E590E00E94FF0589E726
:1003700090E00E94040690E071E0672E712C9924B1
:100380009394CC24CA94DD24DA9466E0862E80917E
:10039000EB03882309F47DC0292F30E0D901AE504A
:1003A000BC4FF901EE5BFB4F80818C932A9A41E2AE
:1003B0004A95F1F70000492F485C00E010E07F010A
:1003C0005AE4A52E54E0B52EA20EB31E602F51E0C4
:1003D000189950E0299A2998552361F09301002E2D
:1003E00002C0220F331F0A94E2F7D7018C91822BAF
:1003F0008C930CC09301002E02C0220F331F0A946D
:10040000E2F72095F701808128232083892F4B83F1
:100410005A8399830E94B507D5018C91282F30E02B
:10042000002E02C0359527950A94E2F74B815A8138
:10043000998120FF21C09301002E02C0220F331F9B
:100440000A94E2F7209528232C932091E70330E0CB
:10045000552311F480E801C080E02E5A3E4F840FEE
:10046000F90180838091E7038F5F8093E703809198
:10047000E7038F778093E7030F5F1F4F48500830E3
:10048000110509F0A3CF2A989F5F977098B9109231
:10049000EB032091510180915001281709F477CF87
:1004A000E0915101F0E0EE52FE4F8081882309F483
:1004B000E3C2813041F410926E0010926F001092EE
:1004C00070001BB8D9C2823029F480926E008093EC
:1004D0006F00D2C2803219F49092E803CDC280310D
:1004E000D9F4E0915101F0E03196EF77F070EE52DF
:1004F000FE4F2081E22FEF70F0E0EE52FD4F22958B
:100500002F70A30102C0440F551F2A95E2F79A01EC
:10051000209530812323EAC08131C9F4E091510153
:10052000F0E03196EF77F070EE52FE4F2081E22F2F
:10053000EF70F0E0EE52FD4F22952F70B30102C034
:10054000660F771F2A95E2F74081462BFBC0823168
:1005500089F41092D2021092D3021092D402109217
:10056000D5021092D6021092D7021092D8021092A1
:10057000D90282C2833189F4D092D202D092D302BE
:10058000D092D402D092D502D092D602D092D70285
:10059000D092D802D092D9026FC28431B1F4A2EDC8
:1005A000B2E020E030E0E0915101F0E03196E20F5E
:1005B000F31FEF77F070EE52FE4F40814D932F5FA7
:1005C0003F4F2830310579F757C28531B9F4E091B2
:1005D0005101F0E03196EF77F070EE52FE4F30812E
:1005E000E0915101F0E03296EF77F070EE52FE4F5D
:1005F0002081E32FF0E0EE52FD4F78C08631A1F567
:10060000E0915101F0E03196EF77F070EE52FE4F3D
:100610002081E0915101F0E03296EF77F070EE52D8
:10062000FE4F4081D30102C0AA0FBB1F2A95E2F7FB
:100630000A2F0095E2EDF2E020E030E050E0BA0150
:10064000022E02C0759567950A94E2F7B08160FFAB
:1006500002C0BA2B01C0B023B0832F5F3F4F319649
:100660002830310561F708C2873159F4E091510112
:10067000EF5FEF77F0E0EE52FE4F20812093F00322
:10068000FBC1883109F06CC0E0915101F0E0319676
:10069000EF77F070EE52FE4F4081242F2F7042957D
:1006A0004F70F30102C0EE0FFF1F4A95E2F7AF0152
:1006B000E0915101F0E03296EF77F070EE52FE4F8C
:1006C00030813323A9F430E04095F901EE52FD4F1B
:1006D000508154235083F901E652FD4F5081542339
:1006E0005083F901EE51FD4F208124232083C4C1A2
:1006F000313099F430E0F901EE52FD4F5081542B26
:100700005083F901E652FD4F5081542B5083F9017B
:10071000EE51FD4F2081242BE9CF3230A9F430E097
:10072000F901EE52FD4F5081542B5083F901E652EE
:10073000FD4F5081542B5083F901EE51FD4F4095F0
:1007400020814223408398C1333009F095C130E0C5
:10075000F901EE52FD4F5081542B50834095BBCF91
:10076000893109F05AC0E0915101F0E03196EF77FC
:10077000F070EE52FE4F2081222391F4E2EDF2E080
:100780002AED32E062EE72E01192D9011D929D01D4
:10079000DB011D92BD01B2E0EA3DFB07A9F76CC188
:1007A000213091F4E2EDF2E02AED32E062EE72E007
:1007B000C192D901CD929D01DB01CD92BD01B2E084
:1007C000EA3DFB07A9F758C1223091F4E2EDF2E0CF
:1007D0002AED32E062EE72E0C192D901CD929D0124
:1007E000DB011D92BD01B2E0EA3DFB07A9F744C160
:1007F000233009F041C1E2EDF2E02AED32E062EE91
:1008000072E0C192D9011D929D01DB011D92BD01D3
:10081000B2E0EA3DFB07A9F72FC18A3109F062C0B7
:1008200042ED52E02AED32E0A2EEB2E000E010E04C
:1008300056C0F301062E02C0EE0FFF1F0A94E2F726
:10084000EE2EE0915101F0E03196E00FF11FE60F3E
:10085000F71FEF77F070EE52FE4FE081EE2331F498
:10086000E094FA01A080AE20A08221C0E13061F4C2
:10087000FA01A080AE28A082F901A080AE28A08253
:10088000EC91EE29EC931AC0E23051F4FA01A08009
:10089000AE28A082F901A080AE28A082E0940BC00F
:1008A000E33061F4FA01A080AE28A082E094F9015F
:1008B000A080AE20A082FC91FE21FC936F5F7F4F51
:1008C0006830710509F0B5CF4F5F5F4F2F5F3F4F25
:1008D0001196085F1F4F0034110509F4CDC060E088
:1008E00070E0A7CF8B3109F061C0E0915101F0E0D9
:1008F0003196EF77F070EE52FE4FA08160E070E02D
:10090000B0E0AD014E525D4F9D0126523D4FAE51BC
:10091000BD4FF301062E02C0EE0FFF1F0A94E2F74F
:100920000E2FE0915101F0E03296E60FF71FEF77BE
:10093000F070EE52FE4FE081EE2331F40095FA01A3
:10094000E080E022E08224C0E13061F4FA01E0803E
:10095000E02AE082F901E080E02AE082EC91E02BDD
:10096000EC931DC0E23069F4FA01E080E02AE082F5
:10097000F901E080E02AE0820095EC910E230C93CF
:100980000EC0E33061F4FA01E080E02AE0820095D5
:10099000F901E080E022E082FC91F023FC936F5F9C
:1009A0007F4F6830710509F0B4CF66C08C3109F013
:1009B0005FC0E0915101F0E03196EF77F070EE52B8
:1009C000FE4F2081A30102C0440F551F2A95E2F774
:1009D000042F22ED32E0AAEDB2E042EEA42E42E076
:1009E000B42E60E070E0E02EE0944091510150E0C0
:1009F0004E5F5F4F460F571F4F7750704E525E4FFE
:100A0000FA014081442321F4F90140814E211BC0A9
:100A1000413059F4F9014081402B40834C91402BE7
:100A20004C93F5014081402B15C0423039F4F90157
:100A30004081402B40834C91402B08C0433059F4F7
:100A4000F9014081402B40834C914E214C93F5019C
:100A500040814E2140836F5F7F4F2F5F3F4F119644
:100A60000894A11CB11C6830710509F0BECF04C008
:100A7000209150012093510130915101209150015A
:100A8000321709F484CC20915101E82FF0E0E050B6
:100A9000FF4F8081280F20935101809151018F7762
:100AA0008093510174CC1092EB02449A459AE9EB81
:100AB000F0E080818E7F808380818D7F808381E1E3
:100AC0008093B80085E48093BC000895880F8093DC
:100AD000BA000895982F413510F040E030C0809161
:100AE000EB028823E1F781E08093EB028FEF8093A4
:100AF000E603109241034150409342034F5F990F28
:100B000091609093EC0285EE8093BC008091EB02A3
:100B10008130E1F380914103841710F44091410347
:100B200020E030E00AC0FB01E20FF31FD901AF5013
:100B3000BD4F8C9180832F5F3F4F2417A0F3842FEC
:100B400008951F93582F122F413510F081E03AC0BD
:100B50008091EB028823E1F782E08093EB028FEF34
:100B60008093E6031092410340934203A1EFB2E069
:100B7000FB0102C081918D938E2F861B8417D0F3C9
:100B8000852F90E0880F991F8093EC0285EE80936B
:100B9000BC00112321F08091EB028230E1F38091BF
:100BA000E6038F3F11F480E00DC08091E6038032B0
:100BB00011F482E007C08091E603803311F084E0F5
:100BC00001C083E01F910895482F613510F081E046
:100BD00008958091EB02843011F082E008956093D3
:100BE0009403A3E4B3E0842F9C01F90102C0819136
:100BF0008D938E2F841B8617D0F380E008959093F9
:100C0000F0028093EF0208959093EE028093ED023C
:100C10000895882311F085EC01C085E88093BC001D
:100C2000089585ED8093BC008091BC0084FDFCCFCD
:100C30001092EB02089585EC8093BC001092EB02B9
:100C400008951F920F920FB60F9211242F933F9386
:100C50004F935F936F937F938F939F93AF93BF93C4
:100C6000EF93FF938091B90090E0887F9070803679
:100C7000910509F4DCC081369105CCF588329105E7
:100C800009F47BC089329105B4F48031910509F4EF
:100C90006FC0813191053CF4009709F431C1089788
:100CA00009F039C165C08831910509F466C08097A3
:100CB00009F031C17DC08034910509F49FC08134B1
:100CC000910544F48033910509F47DC0C89709F07B
:100CD00022C184C08035910509F484C0883591050E
:100CE00009F491C08834910509F015C198C088397C
:100CF000910509F4FDC089399105ECF48837910517
:100D000009F495C0893791054CF48836910509F4AA
:100D10008EC08037910509F0FEC089C088389105E2
:100D200009F4E6C08039910509F487C0803891053F
:100D300009F0F1C082C0803B910509F4B0C0813B4D
:100D400091054CF4803A910509F489C0883A9105DF
:100D500009F0E1C0A4C0803C910509F4CDC0883CF5
:100D6000910509F4C9C0883B910509F0D4C0ACC015
:100D70008091EC028093BB00B9C0909141038091B7
:100D80004203981768F490914103E92FF0E0EF5087
:100D9000FD4F80818093BB009F5F90934103A6C06D
:100DA00085ED8093BC008091BC0084FDFCCFB1C078
:100DB00080E28093E60385ED8093BC008091BC00C7
:100DC00084FDFCCFA6C080E38093E60385ED80938D
:100DD000BC008091BC0084FDFCCF9BC088E3809365
:100DE000E6038AC0809141039091BB00E82FF0E0B8
:100DF000EF50FD4F90838F5F8093410390914103AB
:100E00008091420371C0809141039091BB00E82F13
:100E1000F0E0EF50FD4F90838F5F8093410385EDAD
:100E20008093BC008091BC0084FDFCCF72C083E045
:100E30008093EB021092E50359C08091E503803561
:100E400008F056C08091E5039091BB00E82FF0E0D8
:100E5000EB56FC4F90838F5F8093E50347C08091F2
:100E6000E503803530F4E091E503F0E0EB56FC4F0C
:100E7000108285ED8093BC008091BC0084FDFCCF86
:100E80001092EB026091E503E091EF02F091F00225
:100E900085E993E070E009951092E5032DC084E0A8
:100EA0008093EB021092930310929403E091ED0271
:100EB000F091EE02099580919403882329F481E052
:100EC000809394031092430390919303E92FF0E0F1
:100ED000ED5BFC4F80818093BB009F5F90939303F9
:100EE0009091930380919403981710F485EC01C0BE
:100EF00085E88093BC000FC085EC8093BC0009C0DE
:100F00001092E60385ED8093BC008091BC0084FDC7
:100F1000FCCF1092EB02FF91EF91BF91AF919F91A7
:100F20008F917F916F915F914F913F912F910F9092
:100F30000FBE0F901F901895CF93DF93E2E4F4E07B
:100F400082EF93E0CAE3D4E04AE454E01192DC017A
:100F50001D92CD011992DA011D92AD01B4E0EA347F
:100F6000FB07A1F7DF91CF9108951F93CF93DF93F4
:100F700090E0FC01EE5BFB4F7081C62FD0E0FC01DE
:100F8000EE50FC4F2081272730E0062E02C0359519
:100F900027950A94E2F7DC01A65CBB4F20FF2FC027
:100FA0001C91E12FE727F0E0062E02C0F595E795AA
:100FB0000A94E2F7E0FF5AC0472F50E0062E02C025
:100FC000559547950A94E2F740FF0CC021E030E0C8
:100FD00002C0220F331F6A95E2F7865B9B4FFC012C
:100FE00020833FC0FC0133E0EE0FFF1F3A95E1F78D
:100FF000EC0FFD1FE650FC4F84E1808337C01C914D
:10100000412F472750E0062E02C0559547950A9478
:10101000E2F740FF2BC0FC0123E0EE0FFF1F2A95F3
:10102000E1F7EC0FFD1FE650FC4F20812223F1F089
:10103000215020832223D1F421E030E0062E02C08B
:10104000220F331F0A94E2F7FC01E65BFB4F20837B
:10105000872F90E002C0959587956A95E2F780FF0B
:1010600002C0212B02C0209521232C93DF91CF9128
:101070001F9108952F923F924F925F926F927F92AD
:101080008F929F92AF92BF92CF92DF92EF92FF9298
:101090000F931F93CF93DF93CDB7DEB7CA1BDB0B44
:1010A0000FB6F894DEBF0FBECDBF0994F894FFCF02
:1010B000010101000000000000000000000000002D
:1010C00002020101090303020302410A0A000000AF
:1010D0000405060708090B0D10141A212B3642517E
:1010E000030405060708090A0B0C0D0E0F1114184E
:1010F00001010202030304040505060607070808A8
:00000001FF
