:100000000C942E000C9440000C9440000C94400082
:100010000C9440000C9440000C9440000C94400060
:100020000C9440000C9440000C94D1040C944000BB
:100030000C9440000C9440000C9440000C94400040
:100040000C9440000C9440000C9440000C94400030
:100050000C9440000C9440000C94400011241FBEEE
:10006000CFEFD8E0DEBFCDBF12E0A0E0B1E001C02D
:100070001D92A63DB107E1F70E9405010C940E0800
:100080000C940000719827E030E0482F552747FD79
:10009000509575E0CA01022E02C0959587950A9485
:1000A000E2F780FF05C0729A739A749A759A04C039
:1000B0007298739874987598709A872F8A95F1F74B
:1000C0007098215030408FEF2F3F380719F727E005
:1000D00030E0772767FD709545E0CB01022E02C026
:1000E000959587950A94E2F780FF05C0729A739AF6
:1000F000749A759A04C07298739874987598709AE7
:10010000842F8A95F1F77098215030408FEF2F3F60
:10011000380719F7719A08950F93CF93DF93719869
:10012000E7E0F0E0A82FBB27A7FDB09535E0CD01B3
:100130000E2E02C0959587950A94E2F780FF05C0C0
:10014000729A739A749A759A04C072987398749894
:100150007598709A832F8A95F1F7709831978FEF81
:10016000EF3FF80721F7E7E0F0E0C62FDD27C7FDF6
:10017000D095642F772767FD7095422F552747FD4F
:100180005095A02FBB27A7FDB09525E03E2FCE01AF
:100190000E2E02C0959587950A94E2F780FF02C063
:1001A000759A01C07598CB01032E02C0959587956D
:1001B0000A94E2F780FF02C0749A01C07498CA01E1
:1001C000032E02C0959587950A94E2F780FF02C03E
:1001D000739A01C07398CD0102C0959587953A95A1
:1001E000E2F780FF02C0729A01C07298709A822F63
:1001F0008A95F1F7709831978FEFEF3FF80731F656
:10020000719ADF91CF910F910895A9E3B0E0EBE0EF
:10021000F1E00C94DE0782E08B878C878D878E87D8
:100220008F87888B83E0898B8A8B89E08B8B81E039
:100230008C8B8D8B8E8B8FEF8DB980E784B91EB838
:1002400015B88CE087B91BB81AB88BE067E00E943C
:1002500042008AE06FE00E94420011E0812F60E0DE
:100260000E9442001F5F1930C9F78CE061E00E94D4
:1002700042008FE060E00E94420081E066E040E0E2
:1002800020E000E00E948C0020E040E05DE7CA0131
:100290000197F1F72F5F2830D1F78AE067E00E94DD
:1002A000420081E069E040E020E000E00E948C0034
:1002B00082E066E040E020E00E948C0020E040E028
:1002C0005DE7CA010197F1F72F5F2830D1F78AE087
:1002D00063E00E94420081E060E140E020E000E055
:1002E0000E948C0082E069E040E020E00E948C00E7
:1002F00083E066E040E020E00E948C0020E040E0E7
:100300005DE7CA010197F1F72F5F2830D1F78AE046
:1003100060E00E94420081E060E140E020E000E017
:100320000E948C0082E060E140E020E00E948C00AE
:1003300083E068E040E020E00E948C0084E067E019
:1003400040E020E00E948C0020E040E05DE7CA0130
:100350000197F1F72F5F2830D1F711E0812F60E08E
:100360000E9442001F5F1930C9F78AE06FE00E94C7
:10037000420020E040E05DE7CA010197F1F72F5FFE
:100380002F3FD1F7FE013196CE010B961192E8175F
:10039000F907E1F79E01215E3F4F39AF28AF9E017B
:1003A000215E3F4F80E090E0AE01495E5F4F0BC0A1
:1003B0001192E217F307E1F701969F01285F3F4F83
:1003C0008430910549F0FC0113E0EE0FFF1F1A95F0
:1003D000E1F7E40FF51FECCF0E9426071092010110
:1003E0001092540184B5856084BD80916E00826056
:1003F00080936E0089E187BD7894EE2431E03FABB5
:10040000BB24AA242E010894411C511CB7E18B2E59
:10041000912C8C0E9D1EA1E06A2E712CFFE22F2ED6
:10042000312C2C0E3D1E332341F1349B02C031E0B0
:1004300015C08CE061E00E94420010E0C12CEDE7A5
:10044000DE2E612F669566958AE00E944200C60105
:100450000197F1F71F5F1034A1F730E020E040E092
:100460005DE7CA010197F1F72F5F2034D1F7809142
:100470006E00826080936E00D6CF75E0C72E1BB8E9
:100480001AB848E24A1510F4EE2401C0A394DD2402
:100490003BC243988C2D8A95F1F789B1F201EE0D9C
:1004A000F11D8083EE2099F4B980B2946FE0B622FA
:1004B0005BE05B1568F0EBE0F0E0EC0FFD1FEB0D8F
:1004C000F11D80818FABEE24E394AA2401C0E39454
:1004D0009FA9E91609F013C2EAE0BE1621F469816A
:1004E0006F708AE01BC0FBE0BF16D9F4898183706E
:1004F00019F48CE061E00EC0813039F48CE061E0E9
:100500000E9442008FE061E009C0823009F0F6C12C
:100510008CE060E00E9442008FE060E00E944200B8
:10052000EDC125E0B21671F58981482F4770042F7F
:1005300010E08F70883018F088E090E002C080E012
:1005400090E0F201E00FF11FE80FF91F8A81868B1E
:10055000F401E00FF11FAFE1B0E0AC0FBD1FA00F41
:10056000B11F27E230E02C0F3D1F200F311F020D7D
:10057000131D842F8F5F60814C91F9012081F80158
:10058000008196C1F7E0BF16C9F58981982F977051
:1005900020E030E08F70883010F021E030E0A92FAB
:1005A000B0E0F90153E0EE0FFF1F5A95E1F7E40DBB
:1005B000F51DEA0FFB1F8A81868B2E5F3F4F43E0BC
:1005C000220F331F4A95E1F7240D351D2A0F3B1FDB
:1005D0008B81F901868BF401EA0FFB1F2FE130E0DC
:1005E0002C0F3D1F2A0F3B1F07E210E00C0F1D1FB1
:1005F0000A0F1B1FA20DB31D892F53C1F4E0BF16B4
:1006000009F044C0298130E0C90187709070A301CE
:1006100002C0440F551F8A95E2F7542F6A81369520
:100620002795369527952270E22FF0E003E0EE0F34
:10063000FF1F0A95E1F7E80DF91D20E030E0409535
:10064000C301022E02C0880F991F0A94E2F7862385
:100650009081882311F0952B01C0942390832F5F04
:100660003F4F31962830310559F7740110E01F5F74
:10067000812FF701608140852089008D0E948C00C8
:100680000894E11CF11C183091F738C1F6E0BF1650
:1006900009F050C0298130E0C90187709070A30132
:1006A00002C0440F551F8A95E2F7CA01642FAA8140
:1006B0007B8136952795369527952270E22FF0E0BD
:1006C000B3E0EE0FFF1FBA95E1F7E80DF91D40E02A
:1006D00050E0382F3095C301042E02C0880F991FB7
:1006E0000A94E2F7982F8A232081882311F0262B81
:1006F00001C02323208397238085992311F0862B23
:1007000001C0832380874F5F5F4F3196483051058A
:1007100011F7740110E01F5F812FF70160814085A0
:100720002089008D0E948C000894E11CF11C183077
:1007300091F7E4C0F8E0BF1609F04AC089818370E0
:10074000DE01129660E070E0482F50E0E3E0440FD5
:10075000551FEA95E1F7480D591DC301062E02C049
:10076000880F991F0A94E2F7F82E8C91082F10E059
:10077000FA0120E030E0EF2CE094C801022E02C024
:10078000959587950A94E2F7908180FF02C09F2992
:1007900001C09E2190832F5F3F4F31962830310555
:1007A00061F76F5F7F4F119668307105B1F6740184
:1007B00010E01F5F812FF701608140852089008D47
:1007C0000E948C000894E11CF11C183091F796C02F
:1007D000F2E0BF1641F54A81842F82958770242F5D
:1007E00030E0287030703595279535952795E42FA2
:1007F000EE1FEE27EE1FE20FF0E0A82FB0E063E05F
:10080000EE0FFF1F6A95E1F7E40DF51DEA0FFB1FE0
:100810004770930102C0220F331F4A95E2F7968971
:10082000922B968B2DC0F3E0BF1609F044C04A818D
:10083000842F82958770242F30E028703070359592
:10084000279535952795E42FEE1FEE27EE1FE20F33
:10085000F0E0A82FB0E093E0EE0FFF1F9A95E1F7CC
:10086000E40DF51DEA0FFB1F4770930102C0220F34
:10087000331F4A95E2F7A901409596894923468B93
:10088000F401EA0FFB1F2FE130E02C0F3D1F2A0F70
:100890003B1F07E210E00C0F1D1F0A0F1B1FA20DCC
:1008A000B31D8F5F6081F9014081F80120810C91B7
:1008B0000E948C0023C0F9E0BF1601F58981982FB2
:1008C000917080FD9FEF7401F40190839087908B6D
:1008D000908F319628AD39ADE217F307B1F710E0EC
:1008E0001F5F812FF701608140852089008D0E9464
:1008F0008C000894E11CF11C183091F7EE24D3947D
:10090000439A8C2D8A95F1F7319904C0F4E1DF16F2
:1009100009F0BFCD1BB82FEF2AB91CC0429AE09155
:100920000101F0E0ED5FFE4F80818BB94298429A61
:10093000E0910101F0E0EC5FFE4F80818BB94298BD
:100940008091010190E0029660E570E00E94CB0783
:100950008093010190910101809154019817F1F663
:10096000349B8DCD10926E008FE0F82E00E01DE7D5
:100970008AE06F2D0E944200C8010197F1F7C8017B
:100980000197F1F7C8010197F1F7C8010197F1F755
:10099000FA943FEFF31661F78CE060E00E944200AA
:1009A00044CD1F920F920FB60F921124BF92CF9297
:1009B000DF92EF92FF920F931F932F933F934F93EA
:1009C0005F936F937F938F939F93AF93BF93CF93D7
:1009D000DF93EF93FF93109255019AE1B92E05E052
:1009E000C1E0D0E087E0E82EF12C1FE0C12ED12C31
:1009F0000DC2892F8295807F8093020185B9892F4E
:100A000090E0DC01AA5ABE4FFC01EA56FD4F20815E
:100A10002C93FC013896DF01AA56BD4F2C91EA5A5F
:100A2000FE4F2083FC017096DF01AA56BD4F2C912A
:100A3000EA5AFE4F20834896FC01EA56FD4F20817A
:100A40008A5A9E4FFC0120838B2D8A95F1F7779A65
:100A5000802F8A95F1F710920201CDC140930001D9
:100A600083B190E0B3E096958795BA95E1F78170F0
:100A700080935301E42FF0E0882361F4EA56FD4FA0
:100A80009E01062E02C0220F331F0A94E2F78081D6
:100A9000822B0CC0EA56FD4FCE01062E02C0880FF5
:100AA000991F0A94E2F78095208182238083842F06
:100AB0000E943D0780910001E82FF0E0EA54FD4FCD
:100AC000208110910201822F90E0012E02C09595A5
:100AD00087950A94E2F780FF30C0CE01012E02C054
:100AE000880F991F0A94E2F7809582238083E09112
:100AF0005401F0E0809153018295807FED5FFE4FBD
:100B00008083E0915401F0E0809155019701281B0A
:100B10003109C901A4E0880F991FAA95E1F7812B3B
:100B2000EC5FFE4F80838091540190E0029660E577
:100B300070E00E94CB078093540140915501485FBB
:100B40004093000183B190E096958795969587959F
:100B5000817080935301E42FF0E0882361F4EA561A
:100B6000FD4F9E01012E02C0220F331F0A94E2F7AF
:100B70008081822B0CC0EA56FD4FCE01012E02C0AF
:100B8000880F991F0A94E2F7809520818223808341
:100B9000842F612F0E943D0780910001E82FF0E033
:100BA000EA54FD4F208110910201822F90E0012E26
:100BB00002C0959587950A94E2F780FF30C0CE0178
:100BC000012E02C0880F991F0A94E2F780958223B4
:100BD0008083E0915401F0E0809153018295807F01
:100BE000ED5FFE4F8083E0915401F0E0809155016C
:100BF000A601481B5109CA0164E0880F991F6A9534
:100C0000E1F7812BEC5FFE4F80838091540190E0EF
:100C1000029660E570E00E94CB07809354014091FA
:100C20005501405F4093000183B190E09695879510
:100C3000817080935301E42FF0E0882361F4EA5639
:100C4000FD4F9E01012E02C0220F331F0A94E2F7CE
:100C50008081822B0CC0EA56FD4FCE01012E02C0CE
:100C6000880F991F0A94E2F7809520818223808360
:100C7000842F612F0E943D0780910001E82FF0E052
:100C8000EA54FD4F208110910201822F90E0012E45
:100C900002C0959587950A94E2F780FF32C0CE0195
:100CA000012E02C0880F991F0A94E2F780958223D3
:100CB0008083E0915401F0E0809153018295807F20
:100CC000ED5FFE4F8083E0915401F0E0809155018B
:100CD0009701281B3109C90134E0880F991F3A9503
:100CE000E1F7212F285F282BEC5FFE4F20838091B6
:100CF000540190E0029660E570E00E94CB0780937B
:100D0000540140915501485E4093000183B18170C8
:100D100080935301E42FF0E0882361F4EA56FD4FFD
:100D20009E01012E02C0220F331F0A94E2F7808138
:100D3000822B0CC0EA56FD4FCE01012E02C0880F57
:100D4000991F0A94E2F78095208182238083842F63
:100D5000612F0E943D0780910001E82FF0E0EA54E6
:100D6000FD4F208130910201822F90E0032E02C0BE
:100D7000959587950A94E2F780FF32C0CE01032E45
:100D800002C0880F991F0A94E2F78095822380831E
:100D9000E0915401F0E0809153018295807FED5FF6
:100DA000FE4F8083E0915401F0E080915501A6014F
:100DB000481B5109CA0124E0880F991F2A95E1F7C1
:100DC000232F285F282BEC5FFE4F20838091540156
:100DD00090E0029660E570E00E94CB07809354019A
:100DE000769A802F8A95F1F77698802F8A95F1F779
:100DF0003F5F3093020160910201409155016830DC
:100E000008F42CCE77984F5F40935501909155018F
:100E1000983008F4EECD16BCFF91EF91DF91CF91A1
:100E2000BF91AF919F918F917F916F915F914F9102
:100E30003F912F911F910F91FF90EF90DF90CF90F6
:100E4000BF900F900FBE0F901F90189580E090E01C
:100E5000FC01EA56FD4F1082FC01EA5AFE4F108257
:100E6000FC01EA58FD4F1082FC01EA54FD4F10824C
:100E700001968032910561F708951F93CF93DF9318
:100E8000A82FB0E0FD01EA56FD4F108170E0FD0192
:100E9000EA5AFE4F8081812790E0062E02C0959588
:100EA00087950A94E2F7AC014170507080FF32C020
:100EB000FD01EA58FD4F2081822F812790E0062E08
:100EC00002C0959587950A94E2F780FF23C0812F91
:100ED00090E0062E02C0959587950A94E2F780FF70
:100EE0000DC081E090E002C0880F991F6A95E2F77B
:100EF000AA54BD4F8C93282B208349C093E0AA0F9E
:100F0000BB1F9A95E1F7A60FB71FAA58BE4F88E0FE
:100F10008C933DC0452BD9F5ED01CA58DD4F488172
:100F2000842F812790E0062E02C0959587950A941C
:100F3000E2F780FF2CC0FD0183E0EE0FFF1F8A95D2
:100F4000E1F7E60FF71FEA58FE4F80818823F9F09A
:100F5000815080838823D9F421E030E0062E02C03E
:100F6000220F331F0A94E2F7AA54BD4F2C93812F0E
:100F700090E002C0959587956A95E2F780FF03C0DF
:100F8000422B488304C0822F809584238883DF917D
:100F9000CF911F91089597FB092E07260AD077FD60
:100FA00004D028D006D000201AF4709561957F4FA8
:100FB0000895F6F7909581959F4F08952F923F924F
:100FC0004F925F926F927F928F929F92AF92BF9259
:100FD000CF92DF92EF92FF920F931F93CF93DF9305
:100FE000CDB7DEB7CA1BDB0B0FB6F894DEBF0FBE62
:100FF000CDBF0994AA1BBB1B51E107C0AA1FBB1F91
:10100000A617B70710F0A61BB70B881F991F5A9594
:10101000A9F780959095BC01CD010895F894FFCF74
:00000001FF
