:100000000C942E000C944B000C944B000C944B0061
:100010000C944B000C944B000C944B000C944B0034
:100020000C944B000C944B000C944B000C944B0024
:100030000C944B000C944B000C944B000C944B0014
:100040000C944B000C944B000C944B000C944B0004
:100050000C944B000C944B000C944B0011241FBECD
:10006000CFEFD8E0DEBFCDBF12E0A0E0B1E0E6EA1E
:10007000FDE002C005900D92A030B107D9F713E062
:10008000A0E0B2E001C01D92A034B107E1F70E94E8
:10009000DF000C94D1060C940000719827E030E04A
:1000A000482F552747FD509575E0CA01022E02C022
:1000B000959587950A94E2F780FF03C0729A779A24
:1000C00002C072987798709A872F8A95F1F7709886
:1000D000215030408FEF2F3F380739F727E030E0CD
:1000E000772767FD709545E0CB01022E02C09595FC
:1000F00087950A94E2F780FF03C0729A779A02C04C
:1001000072987798709A842F8A95F1F77098215099
:1001100030408FEF2F3F380739F7719A0895719863
:1001200027E030E0E82FFF27E7FDF09555E0CF010D
:10013000022E02C0959587950A94E2F780FF03C0CE
:10014000729A779A02C072987798709A852F8A95DA
:10015000F1F77098215030408FEF2F3F380739F773
:1001600027E030E0772767FD7095E42FFF27E7FD54
:10017000F09545E0522FCB01022E02C09595879550
:100180000A94E2F780FF02C0729A01C07298CF0110
:1001900002C0959587955A95E2F780FF02C0779A3D
:1001A00001C07798709A842F8A95F1F77098215042
:1001B00030408FEF2F3F3807E9F6719A0895A0E697
:1001C000B0E0E5EEF0E00C94B50692E09F8B988FDE
:1001D000998F9A8F9B8F9C8F83E08D8F8E8F89E074
:1001E0008F8F81E088A389A38AA38BA39CA38FE927
:1001F0008DB980E784B91EB815B88CE087B91BB8F3
:100200001AB88BE067E00E944D008AE06FE00E9420
:100210004D0001E0802F60E00E944D000F5F09302B
:10022000C9F78CE061E00E944D008FE060E00E9421
:100230004D0082E060E840E00E948F0083E060E8CB
:1002400040E00E948F0080E892E020E931E0F9016F
:100250003197F1F70197D9F78AE067E00E944D00E6
:1002600081E060E840E00E948F0082E060E440E0CE
:100270000E948F0083E060E440E00E948F0084E0F1
:1002800060E840E00E948F0080E892E020E931E0E1
:10029000F9013197F1F70197D9F78AE063E00E94FD
:1002A0004D0081E060E440E00E948F0082E060E267
:1002B00040E00E948F0083E060E240E00E948F00F7
:1002C00084E060E440E00E948F0085E060E840E068
:1002D0000E948F0080E892E020E931E0F901319737
:1002E000F1F70197D9F78AE060E00E944D0081E0C4
:1002F00060E240E00E948F0082E060E140E00E9406
:100300008F0083E060E140E00E948F0084E060E2C3
:1003100040E00E948F0085E060EC40E00E948F008A
:1003200080E892E020E931E0F9013197F1F7019797
:10033000D9F701E0802F60E00E944D000F5F093087
:10034000C9F78AE06FE00E944D00FE013D96CE01A4
:1003500047961192E817F907E1F79E01235C3F4F9A
:10036000A1963FAF2EAFA1979E01235C3F4F80E047
:1003700090E0AE014B5C5F4F0BC01192E217F307A8
:10038000E1F701969F01285F3F4F8430910549F0C6
:10039000FC01B3E0EE0FFF1FBA95E1F7E40FF51F84
:1003A000ECCF0E94100681E080937C0082E880936D
:1003B0007A0080917A00806480937A00FE01B5967D
:1003C0008FE79E01235D3F4F80878193E217F307FC
:1003D000D9F78C838B838A83898388EF93E0A0E0AD
:1003E000B0E089879A87AB87BC878D839E83AF8374
:1003F000B887BB2431E06B963FAF6B9755246A9664
:100400001FAE6A97442469961FAE699768961FAE1F
:100410006897A1E02A2E312CAE014A5E5F4F6F969D
:100420005FAF4EAF6F97332319F1349B02C031E0B9
:1004300015C08CE061E00E944D0010E0E12CFDE76A
:10044000FF2E612F669566958AE00E944D00C701D8
:100450000197F1F71F5F1034A1F730E020E040E092
:100460005DE7CA010197F1F72F5F2034D1F7DBCFA9
:100470001BB81AB86A965FAD6A97593210F0BB2460
:1004800036C26A966FAD6A976F5F6A966FAF6A976A
:100490002EC243988F2D8A95F1F789B1EDE0F0E0F7
:1004A000EC0FFD1FEB0DF11D8083BB20B9F45D84C3
:1004B0005294EFE05E227CE0751588F0E7E1F0E011
:1004C000EC0FFD1FE50DF11D80816B968FAF6B97D3
:1004D000BB24B3946A961FAE6A9701C0B3946B961F
:1004E0009FAD6B97B91609F0FDC1AAE05A1621F429
:1004F0006D856F708AE011C0BBE05B16D9F48D8505
:10050000837019F48CE061E010C0813049F48CE014
:1005100061E00E944D008FE061E00E944D00E1C16A
:10052000823009F0DEC18CE060E00E944D008FE077
:1005300060E0F3CFE5E05E1609F04DC02D8530E0B8
:10054000C90187709070A10102C0440F551F8A95A0
:10055000E2F76E85F901E870F07085E390E08C0FAA
:100560009D1FE80FF91F20E030E0542F5095C10186
:10057000022E02C0880F991F0A94E2F78623908109
:10058000882311F0942B01C0952390832F5F3F4F58
:1005900031962830310559F78E010B5C1F4F90E0E2
:1005A0009F5FF801A081B0E0A050BF4F8085E82F89
:1005B000F0E0E050FF4F892F6C9140816D969FAF26
:1005C0006D970E948F000F5F1F4F6D969FAD6D97C7
:1005D000983031F786C1F7E05F1609F04DC02D85E0
:1005E00030E0C90187709070A10102C0440F551F0F
:1005F0008A95E2F76E85F901E870F07085E390E086
:100600008C0F9D1FE80FF91F20E030E0542F50950C
:10061000C101022E02C0880F991F0A94E2F78623B7
:100620009081882311F0942B01C0952390832F5F34
:100630003F4F31962830310559F78E010B5C1F4F23
:1006400090E09F5FF801A081B0E0A050BF4F80858F
:10065000E82FF0E0E050FF4F892F6C9140816D96BC
:100660009FAF6D970E948F000F5F1F4F6D969FADDC
:100670006D97983031F735C1F4E05F1619F59D8517
:10068000892F8F70883008F02CC1892F8770A82F90
:10069000B0E06E85E5E3F0E0EC0FFD1FEA0FFB1F15
:1006A0006083262F30E020503F4F4DE350E04C0F49
:1006B0005D1FA40FB51FEC91F0E0E050FF4F8F5F7E
:1006C000D90125C0B6E05B1639F59D85892F8F705D
:1006D000883008F006C1892F8770A82FB0E06E859A
:1006E000E5E3F0E0EC0FFD1FEA0FFB1F6083EF85F1
:1006F0002DE330E02C0F3D1FA20FB31FEC93A62F6C
:10070000B0E0A050BF4FF0E0E050FF4F8F5F6C9122
:1007100040810E948F00E5C038E05316E1F58D85D9
:100720008370823008F0DDC0DE011E96E82FF0E015
:1007300073E0EE0FFF1F7A95E1F745E350E04C0FB1
:100740005D1FE40FF51F8D9181936F966EAD7FADA8
:100750006F97A617B707B9F78E010B5C1F4F90E094
:100760009F5FF801A081B0E0A050BF4F8085E82FC7
:10077000F0E0E050FF4F892F6C9140816D969FAF64
:100780006D970E948F000F5F1F4F6D969FAD6D9705
:10079000983031F7A6C0F2E05F1661F54E85842FE0
:1007A0008770242F30E02870307035952795359567
:1007B0002795E42FEE1FEE27EE1FE20FF0E0282F23
:1007C00030E053E0EE0FFF1F5A95E1F761E070E073
:1007D0006C0F7D1FE60FF71FE20FF31F4295477066
:1007E000D10102C0AA0FBB1F4A95E2F794A99A2B28
:1007F00094AB31C0F3E05F1609F041C04E85842F01
:100800008770242F30E02870307035952795359506
:100810002795E42FEE1FEE27EE1FE20FF0E0282FC2
:1008200030E003E0EE0FFF1F0A95E1F761E070E0B2
:100830006C0F7D1FE60FF71FE20FF31F4295477005
:10084000D10102C0AA0FBB1F4A95E2F7AD01409546
:1008500094A9492344ABE5E3F0E0EC0FFD1FE20F60
:10086000F31FA081B0E0A050BF4FEDE3F0E0EC0F2C
:10087000FD1F2E0F3F1FF9019081E92F44CFF9E0B2
:100880005F1639F58D85982F917080FD9FEF8E0151
:100890000B5C1F4FF801908390873196A1962EAD87
:1008A0003FADA197E217F307B1F790E09F5F892F63
:1008B000D8016C9118964C916D969FAF6D970E94E0
:1008C0008F000F5F1F4F6D969FAD6D97983071F73A
:1008D00008C0BCE05B1629F4ED85E1706896EFAFC7
:1008E0006897BB24439A8F2D8A95F1F702C015E0D3
:1008F000F12E319BCECD1BB88FEF8AB9B0E2CB2E53
:10090000B3E0DB2EA0E06A2EA2E07A2EF0E38F2E79
:10091000F3E09F2EE7E0AE2EF7E0FA196696FFAF00
:1009200066978F2F8295807F85B985E08A95F1F74C
:10093000D6018C91F301808318968C9180878AE28E
:100940008A95F1F7749A85E08A95F1F700E010E056
:10095000FFE0FA196C96FFAF6C9767960FAF679739
:100960008CB190E075E0969587957A95E1F7D60180
:100970002C91EE24E394E82280FD0AC0C101002EF0
:1009800002C0880F991F0A94E2F7282B2C930BC002
:10099000C101002E02C0880F991F0A94E2F78095CA
:1009A0002823F601208366968FAD669767966FAD14
:1009B00067970E942706D4012C91F02E822F90E099
:1009C000002E02C0959587950A94E2F780FF1DC01E
:1009D000C101002E02C0880F991F0A94E2F780958A
:1009E00082238C93429AE29460EFE622EBB842981D
:1009F000429A87E090E0801B910B54E0880F991F8A
:100A00005A95E1F78A298BB942988CB190E046E07B
:100A1000969587954A95E1F7F6012085EE24E394B3
:100A2000E82280FD0AC0C1010F2C02C0880F991F67
:100A30000A94E2F7282B20870CC0C1010F2C02C0BA
:100A4000880F991F0A94E2F780952823D6011896FB
:100A50002C936C968FAD6C9767966FAD67970E94DD
:100A60002706F4012085822F90E00F2C02C0959577
:100A700087950A94E2F780FF1CC0C10102C0880F6D
:100A8000991FFA94E2F7809582238087429AE29434
:100A900030EFE322EBB84298429A8FE090E0801B5F
:100AA000910B24E0880F991F2A95E1F78A298BB9C9
:100AB0004298739A85E08A95F1F7739885E08A9554
:100AC000F1F70F5F1F4F0830110509F046CF7498FA
:100AD000AA940894C11CD11C0894611C711C089430
:100AE000811C911CFFEFAF1609F016CF68962FAD51
:100AF0006897222309F475C0E42DF0E0EE0FFF1F84
:100B000061E070E06C0F7D1F6E0F7F1FDB018C9129
:100B100011968C93EE0FFF1F01E010E00C0F1D1FCC
:100B20000E0F1F1FD80114962D913D914D915C9190
:100B300017976996BFAD6997CB2EDD24EE0FFF1F87
:100B400081E090E08C0F9D1FE80FF91FEC0DFD1D5B
:100B5000F4A080917800909179009695879596956C
:100B6000879584A3A0E0B0E0280F391F4A1F5B1FC0
:100B70002F19310941095109D80114962D933D933C
:100B80004D935C93179793E0569547953795279526
:100B90009A95D1F7FB0120838181821751F0429A07
:100BA000F0ED4F0E4BB860E3460E4298429A2BB9D7
:100BB000429871E0471661F440927C000894C11C91
:100BC000D11C8C2D877069968FAF6997442404C01F
:100BD00010927C004424439480917A008064809336
:100BE0007A00349B45CC8FE0F82E00E01DE78AE0C8
:100BF0006F2D0E944D00C8010197F1F7C8010197C0
:100C0000F1F7C8010197F1F7C8010197F1F7FA94DC
:100C10009FEFF91661F78CE060E00E944D0005CC73
:100C200080E090E0FC01E05EFC4F1082FC01E050AF
:100C3000FE4F1082FC01E05FFC4F1082FC01E05D82
:100C4000FC4F108201968830910561F708951F933B
:100C5000CF93DF93A82FB0E0FD01E05EFC4F108141
:100C600070E0FD01E050FE4F8081812790E0062E6C
:100C700002C0959587950A94E2F7AC0141705070D7
:100C800080FF32C0FD01E05FFC4F2081822F812771
:100C900090E0062E02C0959587950A94E2F780FFB2
:100CA00023C0812F90E0062E02C0959587950A9467
:100CB000E2F780FF0DC081E090E002C0880F991F2D
:100CC0006A95E2F7A05DBC4F8C93282B208349C026
:100CD00094E0AA0FBB1F9A95E1F7A60FB71FA05F7C
:100CE000BD4F84E18C933DC0452BD9F5ED01C05F2C
:100CF000DC4F4881842F812790E0062E02C0959515
:100D000087950A94E2F780FF2CC0FD0184E0EE0F86
:100D1000FF1F8A95E1F7E60FF71FE05FFD4F808127
:100D20008823F9F0815080838823D9F421E030E0D2
:100D3000062E02C0220F331F0A94E2F7A05DBC4FBB
:100D40002C93812F90E002C0959587956A95E2F7E4
:100D500080FF03C0422B488304C0822F80958423E8
:100D60008883DF91CF911F9108952F923F924F92E8
:100D70005F926F927F928F929F92AF92BF92CF922B
:100D8000DF92EF92FF920F931F93CF93DF93CDB734
:100D9000DEB7CA1BDB0B0FB6F894DEBF0FBECDBFAC
:060DA0000994F894FFCF56
:100DA600008040C020A060E0109050D030B070F0BD
:100DB600088848C828A868E8189858D838B878F82D
:100DC600048444C424A464E4149454D434B474F45D
:100DD6000C8C4CCC2CAC6CEC1C9C5CDC3CBC7CFCCD
:100DE600028242C222A262E2129252D232B272F25D
:100DF6000A8A4ACA2AAA6AEA1A9A5ADA3ABA7AFACD
:100E0600068646C626A666E6169656D636B676F6FC
:100E16000E8E4ECE2EAE6EEE1E9E5EDE3EBE7EFE6C
:100E2600018141C121A161E1119151D131B171F12C
:100E3600098949C929A969E9199959D939B979F99C
:100E4600058545C525A565E5159555D535B575F5CC
:100E56000D8D4DCD2DAD6DED1D9D5DDD3DBD7DFD3C
:100E6600038343C323A363E3139353D333B373F3CC
:100E76000B8B4BCB2BAB6BEB1B9B5BDB3BBB7BFB3C
:100E8600078747C727A767E7179757D737B777F76C
:100E96000F8F4FCF2FAF6FEF1F9F5FDF3FBF7FFFDC
:00000001FF
