:100000000C942E000C944B000C944B000C944B0061
:100010000C944B000C944B000C944B000C944B0034
:100020000C944B000C944B000C948B000C944B00E4
:100030000C944B000C944B000C944B000C944B0014
:100040000C944B000C944B000C944B000C944B0004
:100050000C944B000C944B000C944B0011241FBECD
:10006000CFEFD8E0DEBFCDBF12E0A0E0B1E0E6E325
:10007000FCE002C005900D92A030B107D9F712E064
:10008000A0E0B2E001C01D92A136B107E1F70E94E5
:100090009B000C9419060C940000719827E030E046
:1000A000482F552747FD509575E0CA01022E02C022
:1000B000959587950A94E2F780FF02C0729A01C075
:1000C0007298709A872F8A95F1F770982150304076
:1000D0008FEF2F3F380749F727E030E0772767FD9C
:1000E000709545E0CB01022E02C0959587950A9444
:1000F000E2F780FF02C0729A01C07298709A842F52
:100100008A95F1F77098215030408FEF2F3F3807D4
:1001100049F7719A08951F920F920FB60F9211240A
:100120008F9381E08093000216BC8F910F900FBED9
:100130000F901F901895ADE5B0E0E1EAF0E00C9467
:10014000FD0592E09F8B988F998F9A8F9B8F9C8F44
:1001500083E08D8F8E8F89E08F8F81E088A389A3C4
:100160008AA38BA39CA38FED8DB980E784B91EB8B9
:1001700015B88CE087B91BB81AB88BE067E00E940D
:100180004D008AE06FE00E944D0001E0802F60E0AA
:100190000E944D000F5F0930C9F78CE061E00E94BA
:1001A0004D008FE060E00E944D0081E060E60E941B
:1001B0004D0020E040E05DE7CA010197F1F72F5FB5
:1001C0002830D1F78AE067E00E944D0081E060E9C5
:1001D0000E944D0082E060E60E944D0020E040E079
:1001E0005DE7CA010197F1F72F5F2830D1F78AE068
:1001F00063E00E944D0081E068E00E944D0082E0D3
:1002000060E90E944D0083E060E60E944D0020E01E
:1002100040E05DE7CA010197F1F72F5F2830D1F781
:100220008AE060E00E944D0081E068E00E944D009D
:1002300082E068E00E944D0083E060E10E944D0092
:1002400084E060EE0E944D0020E040E05DE7CA01DE
:100250000197F1F72F5F2830D1F701E0802F60E0A0
:100260000E944D000F5F0930C9F78AE06FE00E94DD
:100270004D0020E040E05DE7CA010197F1F72F5FF4
:100280002F3FD1F7FE013D96CE0147961192E81718
:10029000F907E1F79E01235C3F4F6E963FAF2EAF0B
:1002A0006E979E01235C3F4F80E090E0AE014B5C77
:1002B0005F4F0BC01192E217F307E1F701969F0120
:1002C000285F3F4F8430910549F0FC0163E0EE0F59
:1002D000FF1F6A95E1F7E40FF51FECCF0E945F0561
:1002E00081E080937C0082E880937A0080917A009C
:1002F000806480937A00FE01B5968FE79E01235DAE
:100300003F4F80878193E217F307D9F78C838B8364
:100310008A83898388EF93E0A0E0B0E089879A8799
:10032000AB87BC878D839E83AF83B88784B5856098
:1003300084BD80916E00826080936E0089E187BDEC
:100340007894AA2431E06B963FAF6B9766246A9647
:100350001FAE6A9769961FAE699768961FAE689739
:1003600067961FAE679725E3422E512C4C0E5D1EFB
:1003700091E0292E312C332319F1349B02C031E056
:1003800015C08CE061E00E944D0000E0E12C8DE79B
:10039000F82E602F669566958AE00E944D00C70191
:1003A0000197F1F70F5F0034A1F730E020E040E063
:1003B0005DE7CA010197F1F72F5F2034D1F7DBCF5A
:1003C0001BB81AB86A964FAD6A97493210F0AA2442
:1003D0002CC26A965FAD6A975F5F6A965FAF6A9755
:1003E00024C2439885E08A95F1F789B1EDE0F0E009
:1003F000EC0FFD1FEA0DF11D8083AA20B9F46D8476
:1004000062940FE060226CE0661588F0E7E1F0E0AE
:10041000EC0FFD1FE60DF11D70816B967FAF6B97A2
:10042000AA24A3946A961FAE6A9701C0A3946B9600
:100430008FAD6B97A81609F0F4C19AE0691621F404
:100440006D856F708AE07BC0ABE06A16C9F48D855C
:10045000837019F48CE061E00EC0813039F48CE0D7
:1004600061E00E944D008FE061E069C0823009F0D8
:10047000D7C18CE060E00E944D008FE060E05FC07B
:10048000B5E06B16F9F48D85482F4770242F30E0C6
:100490008F70883018F088E090E002C080E090E033
:1004A000E1E0F0E0EC0FFD1FE20FF31FE80FF91F92
:1004B000AE85B0E0A050BF4F8C9184AB240D351DAC
:1004C000842F3AC0F7E06F16E9F58D85982F977065
:1004D00040E050E08F70883010F041E050E0292F6C
:1004E00030E0DA0113E0AA0FBB1F1A95E1F761E0D3
:1004F00070E06C0F7D1FA60FB71FA20FB31FEE8514
:10050000F0E0E050FF4F8081D4968C934E5F5F4FB8
:10051000F3E0440F551FFA95E1F7460F571F420FBE
:10052000531FEF85F0E0E050FF4F8081DA01D49651
:100530008C93240D351D892F8F5FF90160810E94F6
:100540004D006EC1F4E06F1609F041C02D8530E01A
:10055000C9018095909587709070A10102C0440FE9
:10056000551F8A95E2F7542F6E8536952795369557
:1005700027952270E22FF0E073E0EE0FFF1F7A95CF
:10058000E1F7E40DF51D20E030E04095C101022EB9
:1005900002C0880F991F0A94E2F78623908188236E
:1005A00011F0952B01C0942390832F5F3F4F31961C
:1005B0002830310559F7720100E00F5F802FD70115
:1005C0006D917D010E944D000830B9F729C1B6E058
:1005D0006B1609F04CC02D8530E0C90180959095CF
:1005E00087709070F10102C0EE0FFF1F8A95E2F74D
:1005F0006E2FAE857F853695279536952795227087
:10060000E22FF0E093E0EE0FFF1F9A95E1F7E40D83
:10061000F51D40E050E0362F3095C101042E02C098
:10062000880F991F0A94E2F7982F8A232081882344
:1006300011F0262B01C02323208397238085992343
:1006400011F0862B01C0832380874F5F5F4F319667
:100650004830510511F7720100E00F5F802FD7017C
:100660006D917D010E944D000830B9F7D9C0B8E006
:100670006B1609F04AC08D8583708E01025F1F4F93
:1006800060E070E0482F50E083E0440F551F8A95EA
:10069000E1F7440D551DF101062E02C0EE0FFF1FBC
:1006A0000A94E2F7E050FF4FE081D8018C91E82EE8
:1006B000FF24DA0120E030E0FE2FF095C701022E82
:1006C00002C0959587950A94E2F79C9180FF02C03D
:1006D0009E2B01C09F239C932F5F3F4F1196283084
:1006E000310561F76F5F7F4F0F5F1F4F68307105F6
:1006F00091F6720100E00F5F802FF70161917F0199
:100700000E944D000830B9F78BC0F2E06F1669F512
:100710004E85842F82958770242F30E028703070AA
:100720003595279535952795E42FEE1FEE27EE1F7B
:10073000E20FF0E0A82FB0E013E0EE0FFF1F1A95D4
:10074000E1F721E030E02C0F3D1FE20FF31FEA0F2D
:10075000FB1F40954770B10102C0660F771F4A9595
:10076000E2F794A9962B94AB31C073E0671699F524
:100770004E85842F82958770242F30E0287030704A
:100780003595279535952795E42FEE1FEE27EE1F1B
:10079000E20FF0E0A82FB0E063E0EE0FFF1F6A95D4
:1007A000E1F721E030E02C0F3D1FE20FF31FEA0FCD
:1007B000FB1F40954770B10102C0660F771F4A9535
:1007C000E2F7AB01409594A9492344ABA40DB51DB4
:1007D0008F5F6C91B4CE79E06716D1F48D85982F38
:1007E000917080FD9FEF7201F20191936E96AEAD14
:1007F000BFAD6E97EA17FB07C1F700E00F5F802FD0
:10080000F70161917F010E944D000830B9F708C0DF
:10081000FCE06F1629F42D85217067962FAF67973E
:10082000AA24439A85E08A95F1F7319BDACD80912D
:100830000002882309F424C11BB83FEF3AB951E5FF
:10084000C52E52E0D52E49E5842E42E0942EEE24AA
:10085000FF246696EFAE66978E2D8295807F85B9D0
:10086000F701EF5FFD4FD6018C91808380E991E025
:100870000197F1F7749A85E08A95F1F787E090E0A7
:100880008E199F09B82FB295B07F6C96BFAF6C9749
:1008900000E010E037E0732E602F8CB190E025E08F
:1008A000969587952A95E1F7F6012081BB24B394AC
:1008B000B82280FD0AC0C101002E02C0880F991F16
:1008C0000A94E2F7282B20830BC0C101002E02C03E
:1008D000880F991F0A94E2F780952823D6012C935C
:1008E00066968FAD66970E947805F4013081832F5C
:1008F00090E0002E02C0959587950A94E2F780FF5C
:1009000017C0C101002E02C0880F991F0A94E2F798
:10091000809583238083429AB29480EFB822BBB83B
:100920004298429A6C968FAD6C9787298BB9429802
:10093000739A85E08A95F1F7739885E08A95F1F7C7
:100940000F5F1F4F7A94FFEF7F1609F0A5CF7498C1
:100950000894E11CF11C0894C11CD11C0894811C52
:10096000911C28E0E216F10409F073CF67963FADC1
:100970006797332309F482C069964FAD6997E42FD6
:10098000F0E0EE0FFF1F61E070E06C0F7D1F6E0F57
:100990007F1FDB018C9111968C93EE0FFF1F01E0FE
:1009A00010E00C0F1D1F0E0F1F1FD80114962D9164
:1009B0003D914D915C9117976896BFAD6897CB2E8E
:1009C000DD24EE0FFF1F81E090E08C0F9D1FE80FEC
:1009D000F91FEC0DFD1DF4A0809178009091790035
:1009E000969587959695879584A3A0E0B0E0280F0B
:1009F000391F4A1F5B1F2F19310941095109D801BD
:100A000014962D933D934D935C93179793E05695D1
:100A10004795379527959A95D1F7FB0120838181DA
:100A2000821771F0429A6996FFAD6997F053FBB94E
:100A3000F05D6996FFAF69974298429A2BB9429848
:100A400069962FAD6997213071F420937C0008944A
:100A5000C11CD11C3C2D377068963FAF68976996D2
:100A60001FAE699706C010927C0041E069964FAFB7
:100A7000699780917A00806480937A0010920002D6
:100A8000349B9ECC8FE0F82E00E01DE78AE06F2DAE
:100A90000E944D00C8010197F1F7C8010197F1F7D5
:100AA000C8010197F1F7C8010197F1F7FA945FEFD8
:100AB000F51661F78CE060E00E944D005ECCCF93AC
:100AC000DF93E1E5F2E081E092E0C9E4D2E049E5BC
:100AD00052E01192DC011D92CD011992DA011D92B2
:100AE000AD01B2E0E935FB07A1F7DF91CF910895A1
:100AF0001F93CF93DF9390E0FC01EF5AFD4F70817D
:100B0000C62FD0E0FC01EF5FFD4F2081272730E0AA
:100B1000062E02C0359527950A94E2F7DC01A75B03
:100B2000BD4F20FF2FC01C91E12FE727F0E0062EDC
:100B300002C0F595E7950A94E2F7E0FF5AC0472F07
:100B400050E0062E02C0559547950A94E2F740FF03
:100B50000CC021E030E002C0220F331F6A95E2F79B
:100B6000875A9D4FFC0120833FC0FC0133E0EE0F0C
:100B7000FF1F3A95E1F7EC0FFD1FE75FFD4F8FE098
:100B8000808337C01C91412F472750E0062E02C0BA
:100B9000559547950A94E2F740FF2BC0FC0123E0EE
:100BA000EE0FFF1F2A95E1F7EC0FFD1FE75FFD4FEA
:100BB00020812223F1F0215020832223D1F421E04F
:100BC00030E0062E02C0220F331F0A94E2F7FC0128
:100BD000E75AFD4F2083872F90E002C095958795B7
:100BE0006A95E2F780FF02C0212B02C020952123E5
:100BF0002C93DF91CF911F9108952F923F924F92A6
:100C00005F926F927F928F929F92AF92BF92CF929C
:100C1000DF92EF92FF920F931F93CF93DF93CDB7A5
:100C2000DEB7CA1BDB0B0FB6F894DEBF0FBECDBF1D
:060C30000994F894FFCFC7
:100C3600008040C020A060E0109050D030B070F02E
:100C4600088848C828A868E8189858D838B878F89E
:100C5600048444C424A464E4149454D434B474F4CE
:100C66000C8C4CCC2CAC6CEC1C9C5CDC3CBC7CFC3E
:100C7600028242C222A262E2129252D232B272F2CE
:100C86000A8A4ACA2AAA6AEA1A9A5ADA3ABA7AFA3E
:100C9600068646C626A666E6169656D636B676F66E
:100CA6000E8E4ECE2EAE6EEE1E9E5EDE3EBE7EFEDE
:100CB600018141C121A161E1119151D131B171F19E
:100CC600098949C929A969E9199959D939B979F90E
:100CD600058545C525A565E5159555D535B575F53E
:100CE6000D8D4DCD2DAD6DED1D9D5DDD3DBD7DFDAE
:100CF600038343C323A363E3139353D333B373F33E
:100D06000B8B4BCB2BAB6BEB1B9B5BDB3BBB7BFBAD
:100D1600078747C727A767E7179757D737B777F7DD
:100D26000F8F4FCF2FAF6FEF1F9F5FDF3FBF7FFF4D
:00000001FF
