:100000000C9434000C9451000C9451000C94510049
:100010000C9451000C9451000C9451000C9451001C
:100020000C9451000C9451000C9451000C9451000C
:100030000C9451000C9451000C9453000C945100FA
:100040000C9451000C9451000C9451000C945100EC
:100050000C9451000C9451000C9451000C945100DC
:100060000C94EB060C94510011241FBECFEFD8E086
:10007000DEBFCDBF12E0A0E0B1E0E6E1F1E102C0F9
:1000800005900D92A832B107D9F713E0A8E2B2E0CB
:1000900001C01D92A932B107E1F70E9463000C94E0
:1000A00089080C9400001F920F920FB60F92112432
:1000B0008F9381E08093250316BC8F910F900FBE24
:1000C0000F901F901895A5E0B2E0E9E6F0E00C94DF
:1000D00066081D8288E08E831F82888719861A86AB
:1000E0008B878C8794E69D8786E68E8788E68F8748
:1000F0008AE6888B1092250314B88CE087B91AB869
:1001000014BC85E085BD82E080936E0097BD789435
:100110000E941D0684EF91E024EF31E0F901319750
:10012000F1F70197D9F719821A821B821C828E017E
:100130000F5F1F4F94E621EAE22EF12CEC0EFD1E1C
:10014000D7011C92892FB70141E021E0CD5FDD4F3F
:100150009883C350D2400E946B06CD5FDD4F9881DB
:10016000C350D240882311F4F80190839E5F0F5F43
:100170001F4F9C3629F7FE017196AE014F5C5F4F11
:10018000CC5FDD4F59834883C450D2401192CC5F7D
:10019000DD4F88819981C450D240E817F907B1F743
:1001A0009981CE50DE4F9883C25FD140892F911143
:1001B00081E0AA81CD50DE4FA883C35FD140A11159
:1001C0008F5FBB81CF50DE4FB883C15FD140B1118B
:1001D0008F5FEC81C650DE4FE883CA5FD140E111EA
:1001E0008F5F882339F4CE01419660E071E00E9470
:1001F00082082BC0813091F4CE01419667E071E016
:100200000E948208F8E0CA50DE4FF883C65FD140F2
:10021000CB50DE4FF883C55FD14033C0823099F4B4
:10022000CE01419661E171E00E94820840E1CA502E
:10023000DE4F4883C65FD14058E0CB50DE4F588335
:10024000C55FD1401EC0843059F0CA50DE4F1882BD
:10025000C65FD140CB50DE4F1882C55FD14011C080
:10026000CE0141966CE171E00E94820880E1CA50A3
:10027000DE4F8883C65FD140CB50DE4F8883C55F99
:10028000D140FE01EF55FF4F86E18083118286E069
:10029000828384E6BF0143E021E00E946B0684EF85
:1002A00091E024EF31E0F9013197F1F70197D9F7A7
:1002B0008E010F551F4F86E1D8018C9389E012966D
:1002C0008C9384E6B80143E021E00E946B0681E054
:1002D000F801818386E0828384E6B80143E021E06F
:1002E0000E946B0687E1D8018C938CE011968C9369
:1002F00084E6B80142E021E00E946B0684EF91E0C1
:1003000024EF31E0F9013197F1F70197D9F78E0128
:100310000F551F4F86E1F8018083118280E18283AF
:1003200084E6B80143E021E00E946B0681E0D80139
:1003300011968C93119789E012968C9384E6B801FC
:1003400043E021E00E946B0682E0F801818386E0B1
:10035000828384E6B80143E021E00E946B0687E1D6
:10036000D8018C9387E011968C9384E6B80142E023
:1003700021E00E946B0684EF91E024EF31E0F90167
:100380003197F1F70197D9F78E010F551F4F86E18D
:10039000F801808381E0818380E1828384E6B80173
:1003A00043E021E00E946B0692E0F92ED8011196FD
:1003B000FC92119789E012968C9384E6B80143E091
:1003C00021E00E946B0683E0F801818386E082834E
:1003D00084E6B80143E021E00E946B0687E1D80182
:1003E0008C931196FC9284E6B80142E021E00E94D1
:1003F0006B0684EF91E024EF31E0F9013197F1F7DA
:100400000197D9F78E010F551F4F82E1F8018083C4
:1004100084E6B80141E021E00E946B0687E1D80143
:100420008C938FE011968C9384E6B80142E021E032
:100430000E946B06FF24B1E0C750DE4FB883C95F4E
:10044000D140EE24C850DE4F1882C85FD140C95059
:10045000DE4FB883C75FD1408824CC50DE4F18826E
:10046000C45FD140680181E5A82EB12CAC0EBD1E41
:100470002E010894411C511CF5013396C550DE4FE6
:10048000F983E883CB5FD140A8014E5F5F4FC35033
:10049000DE4F59834883CD5FD140C5010796C150D7
:1004A000DE4F99838883CF5FD140D8011A96CF5F02
:1004B000DD4FB983A883C150D24001EF602E712C6B
:1004C0006C0E7D1E05C0CC50DE4F8882C45FD140CB
:1004D00013B11170C950DE4FB881C75FD1401B17EF
:1004E000F9F0112379F081E0F601808384E6B6010A
:1004F00041E021E00E946B06C950DE4F1883C75FC0
:10050000D1400EC082E0D6018C9384E6B60141E072
:1005100021E00E946B06C950DE4F1882C75FD140B0
:100520001BB81AB8C850DE4FB881C85FD140B93285
:1005300010F0FF240BC0C850DE4FE881C85FD140E7
:10054000EF5FC850DE4FE883C85FD140332412E12B
:10055000212EFEC2429886E08A95F1F789B1F50115
:10056000EF0DF11D8083429AFF20A1F4D501EC909C
:10057000EE2DF0E0E95DFE4FB081C750DE4FB8834D
:10058000C95FD140FF24F394C850DE4F1882C85F82
:10059000D14001C0F394C750DE4FE881C95FD1401C
:1005A000FE1609F0D4C2EE2009F03EC0CE50DE4F58
:1005B0008881C25FD140811181E0282FCD50DE4F6C
:1005C000F881C35FD140F1112F5FCF50DE4F4881DA
:1005D000C15FD14041112F5FC650DE4F5881CA5FC5
:1005E000D14051112F5FF301E80DF11D1082882DCC
:1005F0008F5FF301E80FF11D91E090838F5FF301AE
:10060000E80FF11D20838F5FF301E80FF11D1082C9
:100610008F5FF301E80FF11D92E090838F5FF3018C
:10062000E80FF11D208368C0A1E0EA1609F5F30187
:10063000E80DF11DE082282D2F5F922FDE015196EB
:10064000F301E90FF11D8D9180839F5FCC5FDD4F3A
:10065000E881F981C450D240AE17BF0789F7B0E2F4
:100660008B2E820EC750DE4FF882C95FD1406EC21A
:10067000F2E0EF1609F46AC243E0E41609F466C238
:1006800054E0E51609F462C285E0E816D9F4F301F6
:10069000E80DF11D83E08083882D8F5FF301E80F63
:1006A000F11DCA50DE4F9881C65FD14090838F5FA5
:1006B000F301E80FF11DCB50DE4FA881C55FD1409B
:1006C000A0831AC0B6E0EB1609F440C2E7E0EE16CC
:1006D00009F43CC2F8E0EF1609F438C24FE0E41622
:1006E00071F4F301E80DF11D85E08083882D8F5FA3
:1006F000F301E80FF11D1082882E839427C250E188
:10070000E51619F0F1E1EF1609F5D50111969C9166
:10071000119712962C91892F869586958695E22FB2
:10072000E695E695E695F0E0EE0FFF1FE40DF51D6A
:10073000E80FF11D8485F601E08297709295907F15
:100740002770920F9183B60142E0FDC1F2E1EF16EE
:1007500001F58E010F5F1F4F94E6D8018C9188231D
:1007600091F0F6012082892FB60141E021E0CD5FB2
:10077000DD4F9883C350D2400E946B06CD5FDD4FA2
:100780009881C350D2400F5F1F4F9E5F9C3629F760
:10079000DDC1F3E1EF1609F58E010F5F1F4F94E6FF
:1007A000D8018C91882399F043E1F6014083892F89
:1007B000B60141E021E0CD5FDD4F9883C350D240C8
:1007C0000E946B06CD5FDD4F9881C350D2400F5F12
:1007D0001F4F9E5F9C3621F7B9C154E1E516C9F55C
:1007E000D50111968C9111978695869586951296CE
:1007F000EC911297E695E695E695F0E0EE0FFF1F77
:10080000E40DF51DE80FF11D8485F601E0821396D5
:100810009C911397918314969C91149792831596AB
:100820009C911597938316969C911697948317968F
:100830009C911797958318969C9118979683199673
:100840009C91199797831A969C919087B60149E0DD
:100850007AC1F5E1EF1661F4D50112969C911297D9
:1008600011968C911197869586958695E92F0EC0E5
:10087000F6E1EF16E9F4D50111969C911197892FB5
:100880008695869586951296EC911297E695E69553
:10089000E695F0E0EE0FFF1FE40DF51DE80FF11DEA
:1008A0008485F601E0829770918313969C9153C0E2
:1008B000F7E1EF1641F5D5011196FC90BFE0FB2260
:1008C0008E010F5F1F4F94E6F80180818823A9F005
:1008D000E7E1D601EC931196FC92892FB60142E034
:1008E00021E0CD5FDD4F9883C350D2400E946B065C
:1008F000CD5FDD4F9881C350D2400F5F1F4F9E5F89
:100900009C3611F723C1F8E1EF1649F5D501119690
:100910002C91119712963C911297822F869586956D
:100920008695E32FE695E695E695F0E0EE0FFF1F3E
:10093000E40DF51DE80FF11D848598E1F601908323
:1009400027702295207F3770230F218313969C9167
:100950009695969593709283B60143E0F4C0F9E1C1
:10096000EF1651F5D5011196FC90F694F694B3E08C
:10097000FB228E010F5F1F4F94E6F80180818823D0
:10098000A9F0E9E1D601EC931196FC92892FB6010A
:1009900042E021E0CD5FDD4F9883C350D2400E94FA
:1009A0006B06CD5FDD4F9881C350D2400F5F1F4F64
:1009B0009E5F9C3611F7CAC0FAE1EF1609F046C0F7
:1009C000D50111968C9111978695869586951296EC
:1009D000EC91E695E695E695F0E0EE0FFF1FE40D4D
:1009E000F51DE80FF11D9484FF2403E010E04BE1B6
:1009F000F6014083F182D501A00FB11FC350DE4F35
:100A0000E881F981CD5FD1408D91982F929596958F
:100A100096959370908386958695837081833296A0
:100A2000CF5FDD4F88819981C150D240E817F90727
:100A300059F7892DB6014AE021E00E946B06F39434
:100A40000C5F1F4F98E0F91691F680C0ABE1EA16F3
:100A5000C9F5F50192818181869586958695E92F64
:100A6000E695E695E695F0E0EE0FFF1FE40DF51D27
:100A7000E80FF11D2485D601EC92977011969C9396
:100A8000C550DE4FA881B981CB5FD140C350DE4F46
:100A9000E881F981CD5FD1408D91982F92959695FF
:100AA0009695937090838695869583708183329610
:100AB000C150DE4F48815981CF5FD140A417B5079F
:100AC00059F73EC05CE1E51609F040C0D50111962A
:100AD0008C911197982F9695969596951296EC91E4
:100AE000E695E695E695F0E0EE0FFF1FE40DF51DA7
:100AF000E90FF11D2485F601E08287708183C550DE
:100B0000DE4FA881B981CB5FD140C350DE4FE88171
:100B1000F981CD5FD1408D91982F929596959695BC
:100B20009370908386958695837081833296C150A9
:100B3000DE4F48815981CF5FD140A417B50759F7DF
:100B4000822FB6014AE021E00E946B06FF24339415
:100B5000319904C054E1351609F0FCCC809125038D
:100B6000882309F44FC01092250300E010E094E6BA
:100B7000992E85E0282E312C2C0E3D1EF201E00F1F
:100B8000F11F80818823B1F18FEF89AB892DBE01E0
:100B90006F5C7F4F41E00E94340639A93F3F51F11D
:100BA000232F2770E9E0F0E0EC0FFD1FE00FF11FAD
:100BB0008081280F932F9695969596959770F101C1
:100BC000E00FF11F8081980FF301E80DF11D3095C2
:100BD000331F3327331F305E3083882D8F5FF3013F
:100BE000E80FF11D90838F5FF301E80FF11D208363
:100BF000882E83940F5F1F4F92E0990EACE69A16F1
:100C000009F0BCCFCC50DE4FB881C45FD140B815DD
:100C100009F459CC1BB88FEF8AB9CC50DE4F9881BC
:100C2000C45FD140439AF301E90FF11D80818BB974
:100C300043989F5F9815B1F746CC10922802449ACA
:100C4000459AE9EBF0E080818E7F808380818D7F03
:100C5000808381E18093B80085E48093BC0008958F
:100C6000880F8093BA000895982F413510F040E026
:100C700030C0809128028823E1F781E08093280228
:100C80008FEF8093230310927E02415040937F02A6
:100C90004F5F990F91609093290285EE8093BC007D
:100CA000809128028130E1F380917E02841710F454
:100CB00040917E0220E030E00AC0FB01E20FF31F0A
:100CC000D901A25DBD4F8C9180832F5F3F4F2417C8
:100CD000A0F3842F08951F93582F122F413510F041
:100CE00081E03AC0809128028823E1F782E0809376
:100CF00028028FEF8093230310927E0240937F029D
:100D0000AEE2B2E0FB0102C081918D938E2F861B73
:100D10008417D0F3852F90E0880F991F80932902C4
:100D200085EE8093BC00112321F08091280282304F
:100D3000E1F3809123038F3F11F480E00DC0809197
:100D40002303803211F482E007C0809123038033B3
:100D500011F084E001C083E01F910895482F6135B0
:100D600010F081E0089580912802843011F082E033
:100D700008956093D102A0E8B2E0842F9C01F901AC
:100D800002C081918D938E2F841B8617D0F380E053
:100D9000089590932D0280932C02089590932B0236
:100DA00080932A020895882311F085EC01C085E81C
:100DB0008093BC00089585ED8093BC008091BC00B9
:100DC00084FDFCCF10922802089585EC8093BC002E
:100DD0001092280208951F920F920FB60F921124BD
:100DE0002F933F934F935F936F937F938F939F9333
:100DF000AF93BF93EF93FF938091B90090E0887F0A
:100E000090708036910509F4DCC081369105CCF5EF
:100E10008832910509F47BC089329105B4F48031A0
:100E2000910509F46FC0813191053CF4009709F4F4
:100E300031C1089709F039C165C08831910509F4BD
:100E400066C0809709F031C17DC08034910509F4F6
:100E50009FC08134910544F48033910509F47DC02D
:100E6000C89709F022C184C08035910509F484C077
:100E70008835910509F491C08834910509F015C1B0
:100E800098C08839910509F4FDC089399105ECF4C1
:100E90008837910509F495C0893791054CF4883657
:100EA000910509F48EC08037910509F0FEC089C014
:100EB0008838910509F4E6C08039910509F487C0A6
:100EC0008038910509F0F1C082C0803B910509F49A
:100ED000B0C0813B91054CF4803A910509F489C07A
:100EE000883A910509F0E1C0A4C0803C910509F45D
:100EF000CDC0883C910509F4C9C0883B910509F033
:100F0000D4C0ACC0809129028093BB00B9C090913D
:100F10007E0280917F02981768F490917E02E92FFB
:100F2000F0E0E25DFD4F80818093BB009F5F909376
:100F30007E02A6C085ED8093BC008091BC0084FD3C
:100F4000FCCFB1C080E28093230385ED8093BC0089
:100F50008091BC0084FDFCCFA6C080E38093230376
:100F600085ED8093BC008091BC0084FDFCCF9BC0CC
:100F700088E3809323038AC080917E029091BB0016
:100F8000E82FF0E0E25DFD4F90838F5F80937E025B
:100F900090917E0280917F0271C080917E0290913B
:100FA000BB00E82FF0E0E25DFD4F90838F5F809300
:100FB0007E0285ED8093BC008091BC0084FDFCCF57
:100FC00072C083E0809328021092220359C080915E
:100FD0002203803508F056C0809122039091BB0017
:100FE000E82FF0E0EE52FD4F90838F5F8093220355
:100FF00047C080912203803530F4E0912203F0E075
:10100000EE52FD4F108285ED8093BC008091BC00B4
:1010100084FDFCCF1092280260912203E0912C0203
:10102000F0912D0282ED92E070E00995109222037A
:101030002DC084E0809328021092D0021092D10239
:10104000E0912A02F0912B0209958091D102882328
:1010500029F481E08093D102109280029091D00215
:10106000E92FF0E0E058FD4F80818093BB009F5F47
:101070009093D0029091D0028091D102981710F4F1
:1010800085EC01C085E88093BC000FC085EC80939F
:10109000BC0009C01092230385ED8093BC008091B1
:1010A000BC0084FDFCCF10922802FF91EF91BF910C
:1010B000AF919F918F917F916F915F914F913F91F0
:1010C0002F910F900FBE0F901F9018952F923F9267
:1010D0004F925F926F927F928F929F92AF92BF9248
:1010E000CF92DF92EF92FF920F931F93CF93DF93F4
:1010F000CDB7DEB7CA1BDB0B0FB6F894DEBF0FBE51
:10110000CDBF0994FB01DC0101900D920020E1F7B5
:061110000895F894FFCFE2
:101116006D6F6E6F6D65006D6F6E6F6D6520363429
:10112600006D6F6E6F6D6520313238006D6F6E6FBA
:101136006D652032353600010121010401030103EA
:1011460000000000000001030301010B0404020477
:101156000223070700000000000000000000000056
:101166000000000000000000000000000000000079
:101176000000000000000000000000000000000069
:101186000000000000000000000000000000000059
:101196000000000000000000000000000000000049
:1011A6000000000000000000000000000000000039
:1011B6000000000000000000000000000000000029
:1011C6000000000000000000000000000000000019
:1011D6000000000000000000000000000000000009
:1011E60000000000000000000000000000000000F9
:1011F60000000000000000000000000000000000E9
:1012060000000000000000000000000000000000D8
:1012160000000000000000000000000000000000C8
:1012260000000000000000000000000000000000B8
:081236000000000000000000B0
:00000001FF
