:100000000C9434000C9451000C9451000C94510049
:100010000C9451000C9451000C9451000C9451001C
:100020000C9451000C9451000C9451000C9451000C
:100030000C9451000C9451000C9453000C945100FA
:100040000C9451000C9451000C9451000C945100EC
:100050000C9451000C9451000C9451000C945100DC
:100060000C9478060C94510011241FBECFEFD8E0F9
:10007000DEBFCDBF12E0A0E0B1E0E0E3F0E102C0FE
:1000800005900D92A832B107D9F713E0A8E2B2E0CB
:1000900001C01D92A932B107E1F70E9463000C94E0
:1000A00016080C9400001F920F920FB60F921124A5
:1000B0008F9381E08093250316BC8F910F900FBE24
:1000C0000F901F901895AAE0B2E0E9E6F0E00C94DA
:1000D000F30719821A821B821C821D8288E08E839C
:1000E0001F82888719861A868B878C8794E69D875E
:1000F00086E68E8788E68F878AE6888B10922503AE
:1001000014B88CE087B91AB814BC85E085BD82E0CC
:1001100080936E0097BD78940E94AA05FE017196A7
:10012000AE014F5C5F4FC75FDD4F59834883C950B5
:10013000D2401192C75FDD4F88819981C950D2406A
:10014000E817F907B1F79981CF50DE4F9883C15F67
:10015000D140892F911181E0AA81CE50DE4FA88332
:10016000C25FD140A1118F5FBB81C750DE4FB88302
:10017000C95FD140B1118F5FEC81CD50DE4FE88374
:10018000C35FD140E1118F5F882339F4CE014196DE
:1001900060E071E00E940F0822C0813069F4CE0156
:1001A000419667E071E00E940F08F8E0CB50DE4F07
:1001B000F883C55FD1400EC0823079F4CE014196FC
:1001C00061E171E00E940F0840E1CB50DE4F4883AF
:1001D000C55FD140E8E06E2E17C0843039F0CB50B7
:1001E000DE4F1882C55FD14066240EC0CE01419615
:1001F0006CE171E00E940F0850E1CB50DE4F588354
:10020000C55FD14070E1672E8E010F551F4F8DE203
:10021000D8018C9388E011968C9383E5B80142E075
:1002200021E00E94F805BB24B1E0C850DE4FB8833E
:10023000C85FD140AA24C950DE4F1882C75FD140A1
:10024000CA50DE4FB883C65FD1407724CC50DE4F12
:100250001882C45FD140680161E5862E912C8C0E16
:100260009D1E1E010894211C311CF4013396C050C0
:10027000DE4FF983E883C050D240A8014E5F5F4F44
:10028000CE5FDD4F59834883C250D240C4010796E8
:10029000CC5FDD4F99838883C450D240D8011A9631
:1002A000CA5FDD4FB983A883C650D24051EF452EB7
:1002B000512C4C0E5D1E05C0CC50DE4F7882C45FC1
:1002C000D14013B11170CA50DE4FB881C65FD14022
:1002D0001B17F9F0112379F081E0F601808384E6A1
:1002E000B60141E021E00E94F805CA50DE4F1883B4
:1002F000C65FD1400EC082E0D6018C9384E6B60181
:1003000041E021E00E94F805CA50DE4F1882C65F26
:10031000D1401BB81AB8C950DE4FB881C75FD14071
:10032000B93210F0BB240BC0C950DE4FE881C75F63
:10033000D140EF5FC950DE4FE883C75FD140FF2453
:10034000F2C2429886E08A95F1F789B1F401EB0D8B
:10035000F11D8083429ABB20A1F4D401AC90EA2D18
:10036000F0E0E95DFE4FB081C850DE4FB883C85F52
:10037000D140BB24B394C950DE4F1882C75FD1402F
:1003800001C0B394C850DE4FE881C85FD140BE16AB
:1003900009F0C8C2AA2009F03EC0CF50DE4F8881C4
:1003A000C15FD140811181E0282FCE50DE4FF8810E
:1003B000C25FD140F1112F5FC750DE4F4881C95F46
:1003C000D14041112F5FCD50DE4F5881C35FD140E6
:1003D00051112F5FF201E70DF11D1082872D8F5F04
:1003E000F201E80FF11D91E090838F5FF201E80FB9
:1003F000F11D20838F5FF201E80FF11D10828F5FE6
:10040000F201E80FF11D92E090838F5FF201E80F97
:10041000F11D208363C0A1E0AA1609F5F201E70DE2
:10042000F11DA082272D2F5F922FDE015196F20140
:10043000E90FF11D8D9180839F5FC75FDD4FE881DC
:10044000F981C950D240AE17BF0789F740E2742E38
:10045000720EC850DE4FB882C85FD14062C2F2E06F
:10046000AF1609F45EC243E0A41609F45AC254E080
:10047000A51609F456C285E0A816B1F4F201E70DFD
:10048000F11D83E08083872D8F5FF201E80FF11D5E
:10049000CB50DE4F9881C55FD14090838F5FF201D2
:1004A000E80FF11D60821AC0A6E0AA1609F439C24D
:1004B000B7E0AB1609F435C2E8E0AE1609F431C274
:1004C000FFE0AF1671F4F201E70DF11D85E08083C6
:1004D000872D8F5FF201E80FF11D1082782E739443
:1004E00020C240E1A41619F0F1E1AF1609F5D401DC
:1004F00011969C91119712962C91892F869586952D
:100500008695E22FE695E695E695F0E0EE0FFF1F63
:10051000E20DF31DE80FF11D8485F601A0829770AE
:100520009295907F2770920F9183B60142E0F6C1B9
:10053000F2E1AF16F9F4810194E6D8018C91882399
:1005400099F042E1F6014083892FB60141E021E0B4
:10055000C85FDD4F9883C850D2400E94F805C85F3D
:10056000DD4F9881C850D2400F5F1F4F9E5F9C3671
:1005700021F7D7C153E1A516F9F4810194E6D8011A
:100580008C91882399F043E1F6014083892FB601CD
:1005900041E021E0C85FDD4F9883C850D2400E94FF
:1005A000F805C85FDD4F9881C850D2400F5F1F4FDC
:1005B0009E5F9C3621F7B5C154E1A516C9F5D4015B
:1005C00011968C9111978695869586951296EC9149
:1005D0001297E695E695E695F0E0EE0FFF1FE20D27
:1005E000F31DE80FF11D8485F601A08213969C91FE
:1005F0001397918314969C911497928315969C91CE
:100600001597938316969C911697948317969C91B1
:100610001797958318969C911897968319969C9195
:10062000199797831A969C919087B60149E076C1F5
:10063000F5E1AF1661F4D40112969C9112971196D0
:100640008C911197869586958695E92F0EC0F6E1D7
:10065000AF16E9F4D40111969C911197892F8695D4
:10066000869586951296EC911297E695E695E69515
:10067000F0E0EE0FFF1FE20DF31DE80FF11D848582
:10068000F601A0829770918313969C9151C0F7E177
:10069000AF1631F5D4011196EC90BFE0EB22810149
:1006A00094E6F80180818823A9F0E7E1D601EC9374
:1006B0001196EC92892FB60142E021E0C85FDD4F30
:1006C0009883C850D2400E94F805C85FDD4F9881DA
:1006D000C850D2400F5F1F4F9E5F9C3611F721C15B
:1006E000F8E1AF1649F5D40111962C9111971296A5
:1006F0003C911297822F869586958695E32FE695F5
:10070000E695E695F0E0EE0FFF1FE20DF31DE80F12
:10071000F11D848598E1F601908327702295207F52
:100720003770230F218313969C919695969593701D
:100730009283B60143E0F2C0F9E1AF1641F5D4016E
:100740001196EC90E694E694B3E0EB22810194E6F6
:10075000F80180818823A9F0E9E1D601EC93119694
:10076000EC92892FB60142E021E0C85FDD4F98830B
:10077000C850D2400E94F805C85FDD4F9881C8502C
:10078000D2400F5F1F4F9E5F9C3611F7CAC0FAE13F
:10079000AF1609F046C0D40111968C911197869539
:1007A000869586951296EC91E695E695E695F0E0AD
:1007B000EE0FFF1FE20DF31DE80FF11DB484EE24D0
:1007C00003E010E04BE1F6014083E182D401A00F89
:1007D000B11FCE5FDD4FE881F981C250D2408D91CB
:1007E000982F929596959695937090838695869579
:1007F000837081833296CA5FDD4F88819981C650AC
:10080000D240E817F90759F78B2DB6014AE021E0ED
:100810000E94F805E3940C5F1F4F98E0E91691F6EB
:1008200080C0ABE1AA16C9F5F40192818181869559
:1008300086958695E92FE695E695E695F0E0EE0F2C
:10084000FF1FE20DF31DE80FF11D2485D601AC92C8
:10085000977011969C93C050DE4FA881B981C0500B
:10086000D240CE5FDD4FE881F981C250D2408D91F8
:10087000982F9295969596959370908386958695E8
:10088000837081833296CC5FDD4F48815981C4509B
:10089000D240A417B50759F73EC05CE1A51609F090
:1008A00040C0D40111968C911197982F96959695EA
:1008B00096951296EC91E695E695E695F0E0EE0FAA
:1008C000FF1FE20DF31DE90FF11D2485F601A08243
:1008D00087708183C050DE4FA881B981C050D2405B
:1008E000CE5FDD4FE881F981C250D2408D91982FC3
:1008F000929596959695937090838695869583703C
:1009000081833296CC5FDD4F48815981C450D240FB
:10091000A417B50759F7822FB6014AE021E00E94DB
:10092000F805BB24F394319904C054E1F51609F09D
:1009300008CD80912503882309F4F1C01092250386
:1009400000E010E064E6E62EFF24FA94F101E00FE7
:10095000F11F80818823C1F1F9AA8E2DBE016F5C41
:100960007F4F41E00E94C10539A93F3F69F1232F24
:100970002770E9E0F0E0EC0FFD1FE00FF11F808130
:10098000280F932F9695969596959770E5E0F0E051
:10099000EC0FFD1FE00FF11F8081980FF201E70DB2
:1009A000F11D3095331F3327331F305E3083872D81
:1009B0008F5FF201E80FF11D90838F5FF201E80F66
:1009C000F11D2083782E73940F5F1F4F82E0E80E95
:1009D0009CE6E91609F0BACF82E3D6018C9383E551
:1009E000B60141E021E00E94F80583E5BE016F5C9D
:1009F0007F4F42E00E94C105BAA9C550DE4FB883BF
:100A0000CB5FD140C650DE4F1882CA5FD140E9A803
:100A1000FF24C650DE4FE881F981CA5FD140EE2A3B
:100A2000FF2A84E3D6018C9383E5B60141E021E0FF
:100A30000E94F80583E5BE016F5C7F4F42E00E9493
:100A4000C105BAA9C350DE4FB883CD5FD140C450B1
:100A5000DE4F1882CC5FD14009A910E0C450DE4FB0
:100A6000E881F981CC5FD1400E2B1F2B86E3D601A4
:100A70008C9383E5B60141E021E00E94F80583E50F
:100A8000BE016F5C7F4F42E00E94C105BAA9C15010
:100A9000DE4FB883CF5FD140C250DE4F1882CE5FA9
:100AA000D14029A930E0C250DE4FE881F981CE5F04
:100AB000D1402E2B3F2BF201E70DF11D81E8808301
:100AC000872D8F5FF201E80FF11D10828F5FF20119
:100AD000E80FF11DE0828F5FF201E80FF11DEF2CAE
:100AE000FF0CFF08E0828F5FF201E80FF11D008329
:100AF0008F5FF201E80FF11D012F110F110B008321
:100B00008F5FF201E80FF11D20838F5FF201E80F84
:100B1000F11D232F330F330B2083782E7394CC5089
:100B2000DE4FF881C45FD140F71509F4C5CB1BB87F
:100B30008FEF8AB9CC50DE4F9881C45FD140439A81
:100B4000F201E90FF11D80818BB943989F5F9715E2
:100B5000B1F7B2CB10922802449A459AE9EBF0E043
:100B600080818E7F808380818D7F808381E18093EF
:100B7000B80085E48093BC000895880F8093BA0084
:100B80000895982F413510F040E030C08091280240
:100B90008823E1F781E0809328028FEF809323037D
:100BA00010927E02415040937F024F5F990F9160F7
:100BB0009093290285EE8093BC00809128028130B9
:100BC000E1F380917E02841710F440917E0220E0D0
:100BD00030E00AC0FB01E20FF31FD901A25DBD4F57
:100BE0008C9180832F5F3F4F2417A0F3842F0895AB
:100BF0001F93582F122F413510F081E03AC0809199
:100C000028028823E1F782E0809328028FEF809307
:100C1000230310927E0240937F02AEE2B2E0FB011A
:100C200002C081918D938E2F861B8417D0F3852F60
:100C300090E0880F991F8093290285EE8093BC0075
:100C4000112321F0809128028230E1F38091230367
:100C50008F3F11F480E00DC080912303803211F4A6
:100C600082E007C080912303803311F084E001C04B
:100C700083E01F910895482F613510F081E00895B9
:100C800080912802843011F082E008956093D102AF
:100C9000A0E8B2E0842F9C01F90102C081918D93FC
:100CA0008E2F841B8617D0F380E0089590932D0239
:100CB00080932C02089590932B0280932A0208952A
:100CC000882311F085EC01C085E88093BC0008956D
:100CD00085ED8093BC008091BC0084FDFCCF109218
:100CE0002802089585EC8093BC0010922802089594
:100CF0001F920F920FB60F9211242F933F934F9391
:100D00005F936F937F938F939F93AF93BF93EF9373
:100D1000FF938091B90090E0887F907080369105B4
:100D200009F4DCC081369105CCF58832910509F4CF
:100D30007BC089329105B4F48031910509F46FC00C
:100D4000813191053CF4009709F431C1089709F00D
:100D500039C165C08831910509F466C0809709F0F2
:100D600031C17DC08034910509F49FC08134910563
:100D700044F48033910509F47DC0C89709F022C17D
:100D800084C08035910509F484C08835910509F443
:100D900091C08834910509F015C198C08839910532
:100DA00009F4FDC089399105ECF48837910509F4FF
:100DB00095C0893791054CF48836910509F48EC0A9
:100DC0008037910509F0FEC089C08838910509F483
:100DD000E6C08039910509F487C08038910509F093
:100DE000F1C082C0803B910509F4B0C0813B910500
:100DF0004CF4803A910509F489C0883A910509F0CC
:100E0000E1C0A4C0803C910509F4CDC0883C9105A7
:100E100009F4C9C0883B910509F0D4C0ACC08091E9
:100E200029028093BB00B9C090917E0280917F021D
:100E3000981768F490917E02E92FF0E0E25DFD4F93
:100E400080818093BB009F5F90937E02A6C085ED5A
:100E50008093BC008091BC0084FDFCCFB1C080E2D7
:100E60008093230385ED8093BC008091BC0084FDBA
:100E7000FCCFA6C080E38093230385ED8093BC0064
:100E80008091BC0084FDFCCF9BC088E3809323034A
:100E90008AC080917E029091BB00E82FF0E0E25D75
:100EA000FD4F90838F5F80937E0290917E028091B0
:100EB0007F0271C080917E029091BB00E82FF0E02C
:100EC000E25DFD4F90838F5F80937E0285ED80937E
:100ED000BC008091BC0084FDFCCF72C083E0809395
:100EE00028021092220359C080912203803508F015
:100EF00056C0809122039091BB00E82FF0E0EE52A3
:100F0000FD4F90838F5F8093220347C0809122031F
:100F1000803530F4E0912203F0E0EE52FD4F108274
:100F200085ED8093BC008091BC0084FDFCCF1092C5
:100F3000280260912203E0912C02F0912D0282EDB3
:100F400092E070E00995109222032DC084E0809316
:100F500028021092D0021092D102E0912A02F09160
:100F60002B0209958091D102882329F481E0809396
:100F7000D102109280029091D002E92FF0E0E05867
:100F8000FD4F80818093BB009F5F9093D002909132
:100F9000D0028091D102981710F485EC01C085E849
:100FA0008093BC000FC085EC8093BC0009C01092F8
:100FB000230385ED8093BC008091BC0084FDFCCFB1
:100FC00010922802FF91EF91BF91AF919F918F9165
:100FD0007F916F915F914F913F912F910F900FBE35
:100FE0000F901F9018952F923F924F925F926F92A1
:100FF0007F928F929F92AF92BF92CF92DF92EF92A9
:10100000FF920F931F93CF93DF93CDB7DEB7CA1B29
:10101000DB0B0FB6F894DEBF0FBECDBF0994FB010A
:10102000DC0101900D920020E1F70895F894FFCFC4
:101030006D6F6E6F6D65006D6F6E6F6D6520363410
:10104000006D6F6E6F6D6520313238006D6F6E6FA1
:101050006D652032353600010121010401030103D1
:1010600000000000000001030301010B040402045E
:10107000022307070000000000000000000000003D
:101080000000000000000000000000000000000060
:101090000000000000000000000000000000000050
:1010A0000000000000000000000000000000000040
:1010B0000000000000000000000000000000000030
:1010C0000000000000000000000000000000000020
:1010D0000000000000000000000000000000000010
:1010E0000000000000000000000000000000000000
:1010F00000000000000000000000000000000000F0
:1011000000000000000000000000000000000000DF
:1011100000000000000000000000000000000000CF
:1011200000000000000000000000000000000000BF
:1011300000000000000000000000000000000000AF
:10114000000000000000000000000000000000009F
:08115000000000000000000097
:00000001FF
