:100000000C9434000C9451000C9451000C94510049
:100010000C9451000C9451000C9451000C9451001C
:100020000C9451000C9451000C9451000C9451000C
:100030000C9451000C9451000C9453000C945100FA
:100040000C9451000C9451000C9451000C945100EC
:100050000C9451000C9451000C9451000C945100DC
:100060000C94DA080C94510011241FBECFEFD8E095
:10007000DEBFCDBF12E0A0E0B1E0E2E4F5E102C0F6
:1000800005900D92A832B107D9F713E0A8E2B2E0CB
:1000900001C01D92A932B107E1F70E9463000C94E0
:1000A0009F0A0C9400001F920F920FB60F9211241A
:1000B0008F9381E08093250316BC8F910F900FBE24
:1000C0000F901F901895A2E2B2E0E9E6F0E00C94E0
:1000D000680A19821A821B821C821D8238E0E32E74
:1000E000EE821F82E88619861A86EB86EC8684E605
:1000F0008D8796E69E8798E69F879AE6988B109262
:10010000250314B89CE097B91AB814BC95E095BDC6
:1001100092E090936E0087BD78940E940C082FE3C4
:100120003DE043E0215030404040E1F700C0000096
:100130008E010F551F4F8DE2D8018C931196EC92D2
:1001400083E5B80142E021E00E945A087E0108944C
:10015000E11CF11C94E6F8011082892FB80141E0FE
:1001600021E0C15EDD4F9883CF51D2400E945A08F2
:10017000C15EDD4F9881CF51D240882311F4D70161
:100180009C939E5F0894E11CF11C9C3621F7CE01E4
:10019000C196FE0171961192E817F907E1F7FE0189
:1001A0003596CF5DDD4FF983E883C152D240FE0121
:1001B000319680E0919191118F5FCF5DDD4F288165
:1001C0003981C152D240E217F307A1F7882339F4ED
:1001D000CE01419660E071E00E94980A3DC08130F6
:1001E00091F4CE01419667E071E00E94980A38E0F0
:1001F000CC50DE4F3883C45FD140CD50DE4F3883C2
:10020000C35FD14033C0823099F4CE01419661E1A1
:1002100071E00E94980A48E0CC50DE4F4883C45FEA
:10022000D14050E1CD50DE4F5883C35FD1401EC056
:10023000843091F4CE0141966CE171E00E94980AFD
:1002400080E1CC50DE4F8883C45FD140CD50DE4F7B
:100250008883C35FD1400AC0CC50DE4F1882C45F90
:10026000D140CD50DE4F1882C35FD1408E010F5573
:100270001F4F26E1B22ED801BC9211961C92119705
:1002800096E0C92E1296CC9284E6B80143E021E0B4
:100290000E945A082FE33DE043E0215030404040A7
:1002A000E1F700C00000D801BC9289E0882E1296C8
:1002B0008C9284E6B80143E021E00E945A0866244B
:1002C0006394F8016182C28284E6B80143E021E0D0
:1002D0000E945A08A7E1EA2ED801EC928CE0119610
:1002E0008C9384E6B80142E021E00E945A082FE393
:1002F0003DE043E0215030404040E1F700C00000C5
:10030000D801BC9211961C921197F0E14F2E1296D3
:100310004C9284E6B80143E021E00E945A08F801BB
:100320006182828284E6B80143E021E00E945A089B
:10033000E2E0AE2ED8011196AC9211971296CC92B3
:1003400084E6B80143E021E00E945A08F801E08207
:1003500087E0818384E6B80142E021E00E945A08E8
:100360002FE33DE043E0215030404040E1F700C042
:100370000000D801BC9211966C92119712964C9283
:1003800084E6B80143E021E00E945A08F801A18206
:10039000828284E6B80143E021E00E945A0883E0AB
:1003A000D80111968C9311971296CC9284E6B801DD
:1003B00043E021E00E945A08F801E082A18284E62D
:1003C000B80142E021E00E945A082FE33DE043E0FB
:1003D000215030404040E1F700C0000082E1D801E8
:1003E0008C9384E6B80141E021E00E945A08F801AC
:1003F000E0828FE0818384E6B80142E021E00E9440
:100400005A08C85FDD4F19821882C850D240C65FB3
:10041000DD4F19821882CA50D240C45FDD4F198265
:100420001882CC50D240C750DE4F19821882C95F63
:10043000D140C550DE4F19821882CB5FD140C350E6
:10044000DE4F19821882CD5FD140C150DE4F198234
:100450001882CF5FD140CF5FDD4F19821882C15023
:10046000D240CD5FDD4F19821882C350D240C850B0
:10047000DE4F1882C85FD140AA24C950DE4F1882CF
:10048000C75FD140CF50DE4F1882C15FD140F1E04D
:10049000CA50DE4FF883C65FD140CB50DE4F188282
:1004A000C55FD140BB24C95FDD4FF883C750D24040
:1004B00030E071E5C72ED12CCC0EDD1E4E01089424
:1004C000811C911CA6014D5F5F4FC85EDD4F5983B3
:1004D0004883C851D240C8010296CB5FDD4F998353
:1004E0008883C550D240D6011796C65EDD4FB983CA
:1004F000A883CA51D240F8013A96C45EDD4FF98311
:10050000E883CC51D24061EFE62EF12CEC0EFD1EBB
:1005100093B19170CA50DE4FF881C65FD1409F17EA
:10052000C1F19923F1F081E0D8018C9384E6B80100
:1005300041E021E0C05EDD4F3883C052D240C15E51
:10054000DD4F9883CF51D2400E945A08C15EDD4FE3
:100550009881CF51D240CA50DE4F9883C65FD140B8
:1005600013C082E0F801808384E6B80141E021E015
:10057000C05EDD4F3883C052D2400E945A08CA5034
:10058000DE4F1882C65FD140C05EDD4F3881C05259
:10059000D2401BB81AB8CB50DE4FF881C55FD140AE
:1005A000F93238F4FF5FCB50DE4FF883C55FD1409E
:1005B00001C030E0552422242394C95FDD4F3880E8
:1005C000C750D240EEC25394429826E02A95F1F7E4
:1005D00000C089B1F601E30FF11D8083429A3323F5
:1005E00071F4D601BC90EB2DF0E0E95DFE4F308058
:1005F000CB50DE4F1882C55FD14031E001C03F5F74
:10060000331509F0CEC2BB2071F5FE01319680E0B2
:10061000919191118F5FCF5DDD4F28813981C1525A
:10062000D240E217F307A1F7F701EA0DF11D10829E
:10063000A394F701EA0DF11D2082A394F701EA0DBE
:10064000F11D8083A394F701EA0DF11D1082A3949C
:10065000F701EA0DF11D92E09083A394F701EA0DF2
:10066000F11D808357C04B2D4130C1F4F701EA0DD5
:10067000F11DB0829A2D9F5F2A2D2F5DFE0171968C
:10068000892F4191D701A80FB11D4C938F5F82171D
:10069000C1F750E2A52EA90E332E82C25B2D523037
:1006A00009F47EC2533009F47BC2543009F478C295
:1006B0005530D1F4F701EA0DF11D83E08083A39456
:1006C000F701EA0DF11DCD50DE4F8881C35FD140A7
:1006D0008083A394F701EA0DF11DCC50DE4F988181
:1006E000C45FD140908316C0AB2DA63009F458C228
:1006F000A73009F455C2A83009F452C2AF3061F4F2
:10070000F701EA0DF11D85E08083A394F701EA0D5E
:10071000F11D1082A39444C2BB2DB03119F0BB2D42
:10072000B13101F5F60121819281822F869586955E
:100730008695E92FE695E695E695F0E0EE0FFF1F2A
:10074000E80DF91DE80FF11D8485D801BC922770D2
:100750002295207F9770290F11962C931197B8013D
:1007600042E008C2BB2DB23109F53E010894611C7C
:10077000711C94E6F30181913F01882399F0E2E135
:10078000D801EC93892FB80141E021E0C15EDD4F33
:100790009883CF51D2400E945A08C15EDD4F9881A4
:1007A000CF51D2409E5F9C3629F7FAC1FB2DF33121
:1007B00009F53E010894611C711C94E6D3018D91EA
:1007C0003D01882399F023E1F8012083892FB801A6
:1007D00041E021E0C15EDD4F9883CF51D2400E94BD
:1007E0005A08C15EDD4F9881CF51D2409E5F9C3642
:1007F00029F7D6C13B2D3431D1F5D60111968C9114
:1008000011978695869586951296EC911297E695A6
:10081000E695E695F0E0EE0FFF1FE80DF91DE80FF5
:10082000F11D8485F801B08213969C9113979183F2
:1008300014969C911497928315969C911597938387
:1008400016969C911697948317969C91179795836B
:1008500018969C911897968319969C91199797834F
:100860001A969C911A979087B80149E083C1FB2D95
:10087000F53161F4D60112969C91129711968C91E4
:100880001197869586958695E92F0EC0FB2DF6313A
:10089000F9F4D60111969C911197892F869586952A
:1008A00086951296EC911297E695E695E695F0E01E
:1008B000EE0FFF1FE80DF91DE80FF11D8485F8010B
:1008C000B0829770918313969C911397928352C034
:1008D000FB2DF73131F53E010894611C711C94E643
:1008E000D3018D913D018823C1F027E1F8012083D8
:1008F000D60111968C918F708183892FB80142E0C7
:1009000021E0C15EDD4F9883CF51D2400E945A084A
:10091000C15EDD4F9881CF51D2409E5F9C3601F77A
:100920003FC1BB2DB83149F5F60121819281822F5B
:10093000869586958695E92FE695E695E695F0E00D
:10094000EE0FFF1FE80DF91DE80FF11D848538E15A
:10095000D8013C9327702295207F9770290F11961C
:100960002C931197F6019381969596959370129614
:100970009C931297B80143E0FDC0FB2DF93141F57E
:100980003E010894611C711C94E6D3018D913D01D8
:100990008823D1F029E1F8012083D60111968C91AA
:1009A0008695869583708183892FB80142E021E086
:1009B000C15EDD4F9883CF51D2400E945A08C15E7C
:1009C000DD4F9881CF51D2409E5F9C36F1F6E8C052
:1009D000BB2DBA3109F050C0F6018181869586950C
:1009E0008695E281E695E695E695F0E0EE0FFF1F2D
:1009F000E80DF91DE80FF11D448473E0672E712C9A
:100A000090E0EBE1D801EC9311969C93D601A60DF2
:100A1000B71DCB5FDD4FE881F981C550D2408D9184
:100A2000282F2295269526952370208386958695D6
:100A3000837081833296C45EDD4F28813981CC5129
:100A4000D240E217F30759F7842DB8014AE021E0BC
:100A5000C15EDD4F9883CF51D2400E945A08C15EDB
:100A6000DD4F9881CF51D2409F5F44E050E0640E4B
:100A7000751E983031F694C05B2D5B31D9F5D601E7
:100A800012969C91129711968C91869586958695D3
:100A9000E92FE695E695E695F0E0EE0FFF1FE80DED
:100AA000F91DE80FF11D8485F801B08297709183DC
:100AB000C85EDD4FA881B981C851D240CB5FDD4F00
:100AC000E881F981C550D2409D91292F2295269524
:100AD00026952370208396959695937091833296F0
:100AE000C65EDD4F28813981CA51D240A217B307B3
:100AF00059F73EC03B2D3C3109F040C0D60111965C
:100B00009C911197892F8695869586951296EC91E2
:100B1000E695E695E695F0E0EE0FFF1FE80DF91D6E
:100B2000E80FF11D8485F801B08297709183C85E4B
:100B3000DD4FA881B981C851D240CB5FDD4FE8813C
:100B4000F981C550D2409D91292F22952695269551
:100B50002370208396959695937091833296C65E06
:100B6000DD4F28813981CA51D240A217B30759F706
:100B7000B8014AE021E00E945A0812C03B2D3138EA
:100B800019F0323869F407C041E0C950DE4F48839C
:100B9000C75FD14005C0C950DE4F1882C75FD14042
:100BA00030E0319904C0552D543109F00CCDC95FA6
:100BB000DD4F3882C750D24080912503882309F445
:100BC0000BC2109225032E010894411C511C94E67F
:100BD000662477245FEF49E0242E312C2C0E3D1E35
:100BE000D2018D912D01882309F451C059AB892F71
:100BF000BE016F5C7F4F41E0C05EDD4F3883C05265
:100C0000D240C25EDD4F5883CE51D240C15EDD4F2F
:100C10009883CF51D2400E94230849A9C05EDD4F7E
:100C20003881C052D240C25EDD4F5881CE51D24091
:100C3000C15EDD4F9881CF51D2404F3F41F1842FAB
:100C40008770F101E60DF71D2081820F242F269574
:100C5000269526952770E5E0F0E0EC0FFD1FE60DE8
:100C6000F71D6081260FF701EA0DF11D4095441F25
:100C70004427441F405E4083A394F701EA0DF11D11
:100C80002083A394F701EA0DF11D8083A3940894B7
:100C9000611C711C9E5F9C3609F0A2CFCF50DE4FC5
:100CA000B881C15FD140BF5FCF50DE4FB883C15F15
:100CB000D140B43009F090C1C950DE4FE881C75F20
:100CC000D140EE2309F488C182E3D8018C9383E5F7
:100CD000B80141E021E0C05EDD4F3883C052D24010
:100CE0000E945A0831E3632E712C6C0E7D1E83E541
:100CF000B30142E00E942308BAA9C15FDD4FB88367
:100D0000CF50D240C25FDD4F1882CE50D24089A969
:100D100090E0C25FDD4FE881F981CE50D2408E2B4A
:100D20009F2B44275527481B590BCF50DE4F598323
:100D30004883C15FD140C85FDD4F88819981C85029
:100D4000D240C750DE4FA881B981C95FD1408A0F18
:100D50009B1F840F951FC150DE4FE881F981CF5F43
:100D6000D1408E0F9F1F24E0422E512CB2010E94D1
:100D7000550AC05FDD4F79836883C051D24084E358
:100D8000D8018C9383E5B80141E021E00E945A0824
:100D900083E5B30142E00E942308BAA9CD5EDD4F8E
:100DA000B883C351D240CE5EDD4F1882C251D240CB
:100DB00029A83324CE5EDD4FE881F981C251D240AB
:100DC0002E2A3F2AC550DE4F88819981CB5FD140C2
:100DD000C65FDD4F48815981CA50D240840F951FAC
:100DE000CF5FDD4FA881B981C150D2408A0F9B1FD0
:100DF000C05FDD4FE881F981C051D2408E0F9F1F47
:100E0000B2010E94550ACC5EDD4F79836883C451DC
:100E1000D24086E3D8018C9383E5B80141E021E01C
:100E20000E945A0883E5B30142E00E942308BAA950
:100E3000C95EDD4FB883C751D240CA5EDD4F18820C
:100E4000C651D240E9A9F0E0CA5EDD4F4881598120
:100E5000C651D240E42BF52BC350DE4F88819981D7
:100E6000CD5FD140C45FDD4FA881B981CC50D24065
:100E70008A0F9B1FCD5FDD4F48815981C350D240FF
:100E8000840F951FCC5EDD4FA881B981C451D2403B
:100E90008A0F9B1FB2010E94550AD701AA0DB11DEE
:100EA00081E88C93A394D701AA0DB11D1C92A39441
:100EB000D701AA0DB11D6C93A394D701AA0DB11D42
:100EC0007C93A394D701AA0DB11D2C92A394D701B2
:100ED000AA0DB11D3C92A394D701AA0DB11DEC93AC
:100EE000A394D701AA0DB11DFC93A394C750DE4F64
:100EF000E881F981C95FD140C85FDD4FF983E8839C
:100F0000C850D240C550DE4F48815981CB5FD14097
:100F1000C65FDD4F59834883CA50D240C350DE4F6D
:100F200088819981CD5FD140C45FDD4F99838883EB
:100F3000CC50D240C150DE4FA881B981CF5FD140A3
:100F4000C750DE4FB983A883C95FD140CF5FDD4F63
:100F5000E881F981C150D240C550DE4FF983E88362
:100F6000CB5FD140CD5FDD4F48815981C350D24026
:100F7000C350DE4F59834883CD5FD140CF50DE4F01
:100F800088819981C15FD140C150DE4F99838883A8
:100F9000CF5FD140C05FDD4FA881B981C051D24041
:100FA000CF5FDD4FB983A883C150D240CC5EDD4F07
:100FB000E881F981C451D240CD5FDD4FF983E883E8
:100FC000C350D240CF50DE4F1882C15FD140C05EC7
:100FD000DD4F3881C052D240C850DE4FF881C85F23
:100FE000D140FA1509F494CA1BB88FEF8AB9C850DA
:100FF000DE4F8881C85FD140439AF701E80FF11DA9
:1010000090819BB943988F5F8A15B1F7C850DE4F26
:10101000A882C85FD1407CCA10922802449A459A9F
:10102000E9EBF0E080818E7F808380818D7F8083FB
:1010300081E18093B80085E48093BC000895880F17
:101040008093BA000895982F413510F040E030C0E9
:10105000809128028823E1F781E0809328028FEFB6
:101060008093230310927E02415040937F024F5F92
:10107000990F91609093290285EE8093BC00809136
:1010800028028130E1F380917E02841710F44091B0
:101090007E0220E030E00AC0FB01E20FF31FD9011D
:1010A000A25DBD4F8C9180832F5F3F4F2417A0F32B
:1010B000842F08951F93582F122F413510F081E08F
:1010C0003AC0809128028823E1F782E080932802C9
:1010D0008FEF8093230310927E0240937F02AEE253
:1010E000B2E0FB0102C081918D938E2F861B841785
:1010F000D0F3852F90E0880F991F8093290285EE09
:101100008093BC00112321F0809128028230E1F30A
:10111000809123038F3F11F480E00DC08091230361
:10112000803211F482E007C080912303803311F0F4
:1011300084E001C083E01F910895482F613510F0CD
:1011400081E0089580912802843011F082E00895B2
:101150006093D102A0E8B2E0842F9C01F90102C0A3
:1011600081918D938E2F841B8617D0F380E0089594
:1011700090932D0280932C02089590932B028093DC
:101180002A020895882311F085EC01C085E8809338
:10119000BC00089585ED8093BC008091BC0084FD67
:1011A000FCCF10922802089585EC8093BC00109229
:1011B000280208951F920F920FB60F9211242F93B9
:1011C0003F934F935F936F937F938F939F93AF93CF
:1011D000BF93EF93FF938091B90090E0887F907068
:1011E0008036910509F4DCC081369105CCF5883252
:1011F000910509F47BC089329105B4F480319105E1
:1012000009F46FC0813191053CF4009709F431C1B4
:10121000089709F039C165C08831910509F466C0A5
:10122000809709F031C17DC08034910509F49FC0D9
:101230008134910544F48033910509F47DC0C89749
:1012400009F022C184C08035910509F484C0883535
:10125000910509F491C08834910509F015C198C031
:101260008839910509F4FDC089399105ECF4883776
:10127000910509F495C0893791054CF4883691059C
:1012800009F48EC08037910509F0FEC089C0883806
:10129000910509F4E6C08039910509F487C08038CA
:1012A000910509F0F1C082C0803B910509F4B0C0FE
:1012B000813B91054CF4803A910509F489C0883A44
:1012C000910509F0E1C0A4C0803C910509F4CDC0AE
:1012D000883C910509F4C9C0883B910509F0D4C048
:1012E000ACC0809129028093BB00B9C090917E026E
:1012F00080917F02981768F490917E02E92FF0E0C8
:10130000E25DFD4F80818093BB009F5F90937E02E2
:10131000A6C085ED8093BC008091BC0084FDFCCF0D
:10132000B1C080E28093230385ED8093BC0080915F
:10133000BC0084FDFCCFA6C080E38093230385ED31
:101340008093BC008091BC0084FDFCCF9BC088E3EF
:10135000809323038AC080917E029091BB00E82F86
:10136000F0E0E25DFD4F90838F5F80937E0290916D
:101370007E0280917F0271C080917E029091BB00BD
:10138000E82FF0E0E25DFD4F90838F5F80937E0257
:1013900085ED8093BC008091BC0084FDFCCF72C0C1
:1013A00083E0809328021092220359C08091220387
:1013B000803508F056C0809122039091BB00E82F41
:1013C000F0E0EE52FD4F90838F5F8093220347C081
:1013D00080912203803530F4E0912203F0E0EE5258
:1013E000FD4F108285ED8093BC008091BC0084FD90
:1013F000FCCF1092280260912203E0912C02F09120
:101400002D0282ED92E070E00995109222032DC02A
:1014100084E0809328021092D0021092D102E091D1
:101420002A02F0912B0209958091D102882329F498
:1014300081E08093D102109280029091D002E92F36
:10144000F0E0E058FD4F80818093BB009F5F909358
:10145000D0029091D0028091D102981710F485ECBF
:1014600001C085E88093BC000FC085EC8093BC0070
:1014700009C01092230385ED8093BC008091BC00CD
:1014800084FDFCCF10922802FF91EF91BF91AF91A4
:101490009F918F917F916F915F914F913F912F918C
:1014A0000F900FBE0F901F90189597FB092E0726DF
:1014B0000AD077FD04D028D006D000201AF4709509
:1014C00061957F4F0895F6F7909581959F4F089508
:1014D0002F923F924F925F926F927F928F929F9244
:1014E000AF92BF92CF92DF92EF92FF920F931F9332
:1014F000CF93DF93CDB7DEB7CA1BDB0B0FB6F894E3
:10150000DEBF0FBECDBF0994AA1BBB1B51E107C0B4
:10151000AA1FBB1FA617B70710F0A61BB70B881F83
:10152000991F5A95A9F780959095BC01CD01089512
:10153000FB01DC0101900D920020E1F70895F89481
:02154000FFCFDB
:101542006D6F6E6F6D65006D6F6E6F6D65203634F9
:10155200006D6F6E6F6D6520313238006D6F6E6F8A
:101562006D652032353600010121010401030103BA
:1015720000000000000001030301010B0404020447
:101582000223070700000000000000000000000026
:101592000000000000000000000000000000000049
:1015A2000000000000000000000000000000000039
:1015B2000000000000000000000000000000000029
:1015C2000000000000000000000000000000000019
:1015D2000000000000000000000000000000000009
:1015E20000000000000000010202000000000000F4
:1015F20000000000000000000000000000000000E9
:1016020000000000000000000000000000000000D8
:1016120000000000000000000000000000000000C8
:1016220000000000000000000000000000000000B8
:1016320000000000000000000000000000000000A8
:101642000000000000000000000000000000000098
:101652000000000000000000000000000000000088
:08166200000000000000000080
:00000001FF
